{
  "contractName": "AcceptEverythingPaymaster",
  "abi": [
    {
      "anonymous": false,
      "inputs": [
        {
          "indexed": true,
          "internalType": "address",
          "name": "previousOwner",
          "type": "address"
        },
        {
          "indexed": true,
          "internalType": "address",
          "name": "newOwner",
          "type": "address"
        }
      ],
      "name": "OwnershipTransferred",
      "type": "event"
    },
    {
      "inputs": [],
      "name": "FORWARDER_HUB_OVERHEAD",
      "outputs": [
        {
          "internalType": "uint256",
          "name": "",
          "type": "uint256"
        }
      ],
      "stateMutability": "view",
      "type": "function"
    },
    {
      "inputs": [],
      "name": "PAYMASTER_ACCEPTANCE_BUDGET",
      "outputs": [
        {
          "internalType": "uint256",
          "name": "",
          "type": "uint256"
        }
      ],
      "stateMutability": "view",
      "type": "function"
    },
    {
      "inputs": [],
      "name": "POST_RELAYED_CALL_GAS_LIMIT",
      "outputs": [
        {
          "internalType": "uint256",
          "name": "",
          "type": "uint256"
        }
      ],
      "stateMutability": "view",
      "type": "function"
    },
    {
      "inputs": [],
      "name": "PRE_RELAYED_CALL_GAS_LIMIT",
      "outputs": [
        {
          "internalType": "uint256",
          "name": "",
          "type": "uint256"
        }
      ],
      "stateMutability": "view",
      "type": "function"
    },
    {
      "inputs": [
        {
          "components": [
            {
              "components": [
                {
                  "internalType": "address",
                  "name": "from",
                  "type": "address"
                },
                {
                  "internalType": "address",
                  "name": "to",
                  "type": "address"
                },
                {
                  "internalType": "uint256",
                  "name": "value",
                  "type": "uint256"
                },
                {
                  "internalType": "uint256",
                  "name": "gas",
                  "type": "uint256"
                },
                {
                  "internalType": "uint256",
                  "name": "nonce",
                  "type": "uint256"
                },
                {
                  "internalType": "bytes",
                  "name": "data",
                  "type": "bytes"
                }
              ],
              "internalType": "struct IForwarder.ForwardRequest",
              "name": "request",
              "type": "tuple"
            },
            {
              "components": [
                {
                  "internalType": "uint256",
                  "name": "gasPrice",
                  "type": "uint256"
                },
                {
                  "internalType": "uint256",
                  "name": "pctRelayFee",
                  "type": "uint256"
                },
                {
                  "internalType": "uint256",
                  "name": "baseRelayFee",
                  "type": "uint256"
                },
                {
                  "internalType": "address",
                  "name": "relayWorker",
                  "type": "address"
                },
                {
                  "internalType": "address",
                  "name": "paymaster",
                  "type": "address"
                },
                {
                  "internalType": "bytes",
                  "name": "paymasterData",
                  "type": "bytes"
                },
                {
                  "internalType": "uint256",
                  "name": "clientId",
                  "type": "uint256"
                },
                {
                  "internalType": "address",
                  "name": "forwarder",
                  "type": "address"
                }
              ],
              "internalType": "struct GsnTypes.RelayData",
              "name": "relayData",
              "type": "tuple"
            }
          ],
          "internalType": "struct GsnTypes.RelayRequest",
          "name": "relayRequest",
          "type": "tuple"
        }
      ],
      "name": "_verifyForwarder",
      "outputs": [],
      "stateMutability": "view",
      "type": "function"
    },
    {
      "inputs": [],
      "name": "getGasLimits",
      "outputs": [
        {
          "components": [
            {
              "internalType": "uint256",
              "name": "acceptanceBudget",
              "type": "uint256"
            },
            {
              "internalType": "uint256",
              "name": "preRelayedCallGasLimit",
              "type": "uint256"
            },
            {
              "internalType": "uint256",
              "name": "postRelayedCallGasLimit",
              "type": "uint256"
            }
          ],
          "internalType": "struct IPaymaster.GasLimits",
          "name": "limits",
          "type": "tuple"
        }
      ],
      "stateMutability": "view",
      "type": "function"
    },
    {
      "inputs": [],
      "name": "getHubAddr",
      "outputs": [
        {
          "internalType": "address",
          "name": "",
          "type": "address"
        }
      ],
      "stateMutability": "view",
      "type": "function"
    },
    {
      "inputs": [],
      "name": "getRelayHubDeposit",
      "outputs": [
        {
          "internalType": "uint256",
          "name": "",
          "type": "uint256"
        }
      ],
      "stateMutability": "view",
      "type": "function"
    },
    {
      "inputs": [],
      "name": "owner",
      "outputs": [
        {
          "internalType": "address",
          "name": "",
          "type": "address"
        }
      ],
      "stateMutability": "view",
      "type": "function"
    },
    {
      "inputs": [],
      "name": "renounceOwnership",
      "outputs": [],
      "stateMutability": "nonpayable",
      "type": "function"
    },
    {
      "inputs": [
        {
          "internalType": "contract IRelayHub",
          "name": "hub",
          "type": "address"
        }
      ],
      "name": "setRelayHub",
      "outputs": [],
      "stateMutability": "nonpayable",
      "type": "function"
    },
    {
      "inputs": [
        {
          "internalType": "contract IForwarder",
          "name": "forwarder",
          "type": "address"
        }
      ],
      "name": "setTrustedForwarder",
      "outputs": [],
      "stateMutability": "nonpayable",
      "type": "function"
    },
    {
      "inputs": [
        {
          "internalType": "address",
          "name": "newOwner",
          "type": "address"
        }
      ],
      "name": "transferOwnership",
      "outputs": [],
      "stateMutability": "nonpayable",
      "type": "function"
    },
    {
      "inputs": [],
      "name": "trustedForwarder",
      "outputs": [
        {
          "internalType": "contract IForwarder",
          "name": "",
          "type": "address"
        }
      ],
      "stateMutability": "view",
      "type": "function"
    },
    {
      "inputs": [
        {
          "internalType": "uint256",
          "name": "amount",
          "type": "uint256"
        },
        {
          "internalType": "address payable",
          "name": "target",
          "type": "address"
        }
      ],
      "name": "withdrawRelayHubDepositTo",
      "outputs": [],
      "stateMutability": "nonpayable",
      "type": "function"
    },
    {
      "stateMutability": "payable",
      "type": "receive"
    },
    {
      "inputs": [],
      "name": "versionPaymaster",
      "outputs": [
        {
          "internalType": "string",
          "name": "",
          "type": "string"
        }
      ],
      "stateMutability": "view",
      "type": "function"
    },
    {
      "inputs": [
        {
          "components": [
            {
              "components": [
                {
                  "internalType": "address",
                  "name": "from",
                  "type": "address"
                },
                {
                  "internalType": "address",
                  "name": "to",
                  "type": "address"
                },
                {
                  "internalType": "uint256",
                  "name": "value",
                  "type": "uint256"
                },
                {
                  "internalType": "uint256",
                  "name": "gas",
                  "type": "uint256"
                },
                {
                  "internalType": "uint256",
                  "name": "nonce",
                  "type": "uint256"
                },
                {
                  "internalType": "bytes",
                  "name": "data",
                  "type": "bytes"
                }
              ],
              "internalType": "struct IForwarder.ForwardRequest",
              "name": "request",
              "type": "tuple"
            },
            {
              "components": [
                {
                  "internalType": "uint256",
                  "name": "gasPrice",
                  "type": "uint256"
                },
                {
                  "internalType": "uint256",
                  "name": "pctRelayFee",
                  "type": "uint256"
                },
                {
                  "internalType": "uint256",
                  "name": "baseRelayFee",
                  "type": "uint256"
                },
                {
                  "internalType": "address",
                  "name": "relayWorker",
                  "type": "address"
                },
                {
                  "internalType": "address",
                  "name": "paymaster",
                  "type": "address"
                },
                {
                  "internalType": "bytes",
                  "name": "paymasterData",
                  "type": "bytes"
                },
                {
                  "internalType": "uint256",
                  "name": "clientId",
                  "type": "uint256"
                },
                {
                  "internalType": "address",
                  "name": "forwarder",
                  "type": "address"
                }
              ],
              "internalType": "struct GsnTypes.RelayData",
              "name": "relayData",
              "type": "tuple"
            }
          ],
          "internalType": "struct GsnTypes.RelayRequest",
          "name": "relayRequest",
          "type": "tuple"
        },
        {
          "internalType": "bytes",
          "name": "signature",
          "type": "bytes"
        },
        {
          "internalType": "bytes",
          "name": "approvalData",
          "type": "bytes"
        },
        {
          "internalType": "uint256",
          "name": "maxPossibleGas",
          "type": "uint256"
        }
      ],
      "name": "preRelayedCall",
      "outputs": [
        {
          "internalType": "bytes",
          "name": "context",
          "type": "bytes"
        },
        {
          "internalType": "bool",
          "name": "revertOnRecipientRevert",
          "type": "bool"
        }
      ],
      "stateMutability": "nonpayable",
      "type": "function"
    },
    {
      "inputs": [
        {
          "internalType": "bytes",
          "name": "context",
          "type": "bytes"
        },
        {
          "internalType": "bool",
          "name": "success",
          "type": "bool"
        },
        {
          "internalType": "uint256",
          "name": "gasUseWithoutPost",
          "type": "uint256"
        },
        {
          "components": [
            {
              "internalType": "uint256",
              "name": "gasPrice",
              "type": "uint256"
            },
            {
              "internalType": "uint256",
              "name": "pctRelayFee",
              "type": "uint256"
            },
            {
              "internalType": "uint256",
              "name": "baseRelayFee",
              "type": "uint256"
            },
            {
              "internalType": "address",
              "name": "relayWorker",
              "type": "address"
            },
            {
              "internalType": "address",
              "name": "paymaster",
              "type": "address"
            },
            {
              "internalType": "bytes",
              "name": "paymasterData",
              "type": "bytes"
            },
            {
              "internalType": "uint256",
              "name": "clientId",
              "type": "uint256"
            },
            {
              "internalType": "address",
              "name": "forwarder",
              "type": "address"
            }
          ],
          "internalType": "struct GsnTypes.RelayData",
          "name": "relayData",
          "type": "tuple"
        }
      ],
      "name": "postRelayedCall",
      "outputs": [],
      "stateMutability": "nonpayable",
      "type": "function"
    }
  ],
  "bytecode": "0x608060405234801561001057600080fd5b5060006100216100c460201b60201c565b9050806000806101000a81548173ffffffffffffffffffffffffffffffffffffffff021916908373ffffffffffffffffffffffffffffffffffffffff1602179055508073ffffffffffffffffffffffffffffffffffffffff16600073ffffffffffffffffffffffffffffffffffffffff167f8be0079c531659141344cd1fd0a4f28419497f9722a3daafe3b4186f6b6457e060405160405180910390a3506100cc565b600033905090565b611af9806100db6000396000f3fe60806040526004361061010d5760003560e01c8063921276ea11610095578063da74222811610064578063da7422281461044c578063df463a6614610475578063e5c12446146104a0578063f2fde38b146104de578063f9c002f71461050757610234565b8063921276ea146103a25780639ea09211146103cd578063b90b41cf146103f6578063bbdaa3c91461042157610234565b806374e861d6116100dc57806374e861d6146102cf5780637bb05264146102fa5780637da0a877146103235780638da5cb5b1461034e5780638e9483b01461037957610234565b80632afe31c1146102395780632d14c4b7146102645780635ea54eee1461028d578063715018a6146102b857610234565b3661023457600073ffffffffffffffffffffffffffffffffffffffff16600160009054906101000a900473ffffffffffffffffffffffffffffffffffffffff1673ffffffffffffffffffffffffffffffffffffffff1614156101a4576040517f08c379a000000000000000000000000000000000000000000000000000000000815260040161019b90611769565b60405180910390fd5b600160009054906101000a900473ffffffffffffffffffffffffffffffffffffffff1673ffffffffffffffffffffffffffffffffffffffff1663aa67c91934306040518363ffffffff1660e01b815260040161020091906116a1565b6000604051808303818588803b15801561021957600080fd5b505af115801561022d573d6000803e3d6000fd5b5050505050005b600080fd5b34801561024557600080fd5b5061024e610532565b60405161025b9190611824565b60405180910390f35b34801561027057600080fd5b5061028b600480360381019061028691906112d9565b6105e4565b005b34801561029957600080fd5b506102a26106f2565b6040516102af9190611809565b60405180910390f35b3480156102c457600080fd5b506102cd610727565b005b3480156102db57600080fd5b506102e4610862565b6040516102f19190611686565b60405180910390f35b34801561030657600080fd5b50610321600480360381019061031c9190611193565b61088c565b005b34801561032f57600080fd5b5061033861094c565b60405161034591906116ec565b60405180910390f35b34801561035a57600080fd5b50610363610972565b6040516103709190611686565b60405180910390f35b34801561038557600080fd5b506103a0600480360381019061039b91906110d2565b61099b565b005b3480156103ae57600080fd5b506103b76109a2565b6040516103c49190611707565b60405180910390f35b3480156103d957600080fd5b506103f460048036038101906103ef91906111bc565b6109c2565b005b34801561040257600080fd5b5061040b610a7f565b6040516104189190611824565b60405180910390f35b34801561042d57600080fd5b50610436610a85565b6040516104439190611824565b60405180910390f35b34801561045857600080fd5b50610473600480360381019061046e919061116a565b610a8c565b005b34801561048157600080fd5b5061048a610b4c565b6040516104979190611824565b60405180910390f35b3480156104ac57600080fd5b506104c760048036038101906104c291906111fd565b610b57565b6040516104d59291906116bc565b60405180910390f35b3480156104ea57600080fd5b5061050560048036038101906105009190611080565b610b7c565b005b34801561051357600080fd5b5061051c610d26565b6040516105299190611824565b60405180910390f35b6000600160009054906101000a900473ffffffffffffffffffffffffffffffffffffffff1673ffffffffffffffffffffffffffffffffffffffff166370a08231306040518263ffffffff1660e01b815260040161058f91906116a1565b60206040518083038186803b1580156105a757600080fd5b505afa1580156105bb573d6000803e3d6000fd5b505050506040513d601f19601f820116820180604052508101906105df91906112b0565b905090565b6105ec610d2d565b73ffffffffffffffffffffffffffffffffffffffff1661060a610972565b73ffffffffffffffffffffffffffffffffffffffff1614610660576040517f08c379a0000000000000000000000000000000000000000000000000000000008152600401610657906117e9565b60405180910390fd5b600160009054906101000a900473ffffffffffffffffffffffffffffffffffffffff1673ffffffffffffffffffffffffffffffffffffffff1662f714ce83836040518363ffffffff1660e01b81526004016106bc92919061183f565b600060405180830381600087803b1580156106d657600080fd5b505af11580156106ea573d6000803e3d6000fd5b505050505050565b6106fa610f36565b604051806060016040528061c350620186a0018152602001620186a081526020016201adb0815250905090565b61072f610d2d565b73ffffffffffffffffffffffffffffffffffffffff1661074d610972565b73ffffffffffffffffffffffffffffffffffffffff16146107a3576040517f08c379a000000000000000000000000000000000000000000000000000000000815260040161079a906117e9565b60405180910390fd5b600073ffffffffffffffffffffffffffffffffffffffff166000809054906101000a900473ffffffffffffffffffffffffffffffffffffffff1673ffffffffffffffffffffffffffffffffffffffff167f8be0079c531659141344cd1fd0a4f28419497f9722a3daafe3b4186f6b6457e060405160405180910390a360008060006101000a81548173ffffffffffffffffffffffffffffffffffffffff021916908373ffffffffffffffffffffffffffffffffffffffff160217905550565b6000600160009054906101000a900473ffffffffffffffffffffffffffffffffffffffff16905090565b610894610d2d565b73ffffffffffffffffffffffffffffffffffffffff166108b2610972565b73ffffffffffffffffffffffffffffffffffffffff1614610908576040517f08c379a00000000000000000000000000000000000000000000000000000000081526004016108ff906117e9565b60405180910390fd5b80600160006101000a81548173ffffffffffffffffffffffffffffffffffffffff021916908373ffffffffffffffffffffffffffffffffffffffff16021790555050565b600260009054906101000a900473ffffffffffffffffffffffffffffffffffffffff1681565b60008060009054906101000a900473ffffffffffffffffffffffffffffffffffffffff16905090565b5050505050565b6060604051806060016040528060298152602001611a9b60299139905090565b8080602001906109d2919061188c565b60e00160208101906109e49190611080565b73ffffffffffffffffffffffffffffffffffffffff16600260009054906101000a900473ffffffffffffffffffffffffffffffffffffffff1673ffffffffffffffffffffffffffffffffffffffff1614610a73576040517f08c379a0000000000000000000000000000000000000000000000000000000008152600401610a6a90611789565b60405180910390fd5b610a7c81610d35565b50565b61c35081565b6201adb081565b610a94610d2d565b73ffffffffffffffffffffffffffffffffffffffff16610ab2610972565b73ffffffffffffffffffffffffffffffffffffffff1614610b08576040517f08c379a0000000000000000000000000000000000000000000000000000000008152600401610aff906117e9565b60405180910390fd5b80600260006101000a81548173ffffffffffffffffffffffffffffffffffffffff021916908373ffffffffffffffffffffffffffffffffffffffff16021790555050565b61c350620186a00181565b6060600080604051806020016040528060008152509091509150965096945050505050565b610b84610d2d565b73ffffffffffffffffffffffffffffffffffffffff16610ba2610972565b73ffffffffffffffffffffffffffffffffffffffff1614610bf8576040517f08c379a0000000000000000000000000000000000000000000000000000000008152600401610bef906117e9565b60405180910390fd5b600073ffffffffffffffffffffffffffffffffffffffff168173ffffffffffffffffffffffffffffffffffffffff161415610c68576040517f08c379a0000000000000000000000000000000000000000000000000000000008152600401610c5f90611749565b60405180910390fd5b8073ffffffffffffffffffffffffffffffffffffffff166000809054906101000a900473ffffffffffffffffffffffffffffffffffffffff1673ffffffffffffffffffffffffffffffffffffffff167f8be0079c531659141344cd1fd0a4f28419497f9722a3daafe3b4186f6b6457e060405160405180910390a3806000806101000a81548173ffffffffffffffffffffffffffffffffffffffff021916908373ffffffffffffffffffffffffffffffffffffffff16021790555050565b620186a081565b600033905090565b60006060828060000190610d499190611868565b6020016020810190610d5b9190611080565b73ffffffffffffffffffffffffffffffffffffffff1663572b6c0560e01b848060200190610d89919061188c565b60e0016020810190610d9b9190611080565b604051602401610dab9190611686565b604051602081830303815290604052907bffffffffffffffffffffffffffffffffffffffffffffffffffffffff19166020820180517bffffffffffffffffffffffffffffffffffffffffffffffffffffffff8381831617835250505050604051610e15919061166f565b600060405180830381855afa9150503d8060008114610e50576040519150601f19603f3d011682016040523d82523d6000602084013e610e55565b606091505b509150915081610e9a576040517f08c379a0000000000000000000000000000000000000000000000000000000008152600401610e91906117c9565b60405180910390fd5b6020815114610ede576040517f08c379a0000000000000000000000000000000000000000000000000000000008152600401610ed5906117a9565b60405180910390fd5b80806020019051810190610ef291906110a9565b610f31576040517f08c379a0000000000000000000000000000000000000000000000000000000008152600401610f2890611729565b60405180910390fd5b505050565b60405180606001604052806000815260200160008152602001600081525090565b600081359050610f6681611a10565b92915050565b600081359050610f7b81611a27565b92915050565b600081359050610f9081611a3e565b92915050565b600081519050610fa581611a3e565b92915050565b60008083601f840112610fbd57600080fd5b8235905067ffffffffffffffff811115610fd657600080fd5b602083019150836001820283011115610fee57600080fd5b9250929050565b60008135905061100481611a55565b92915050565b60008135905061101981611a6c565b92915050565b6000610100828403121561103257600080fd5b81905092915050565b60006040828403121561104d57600080fd5b81905092915050565b60008135905061106581611a83565b92915050565b60008151905061107a81611a83565b92915050565b60006020828403121561109257600080fd5b60006110a084828501610f57565b91505092915050565b6000602082840312156110bb57600080fd5b60006110c984828501610f96565b91505092915050565b6000806000806000608086880312156110ea57600080fd5b600086013567ffffffffffffffff81111561110457600080fd5b61111088828901610fab565b9550955050602061112388828901610f81565b935050604061113488828901611056565b925050606086013567ffffffffffffffff81111561115157600080fd5b61115d8882890161101f565b9150509295509295909350565b60006020828403121561117c57600080fd5b600061118a84828501610ff5565b91505092915050565b6000602082840312156111a557600080fd5b60006111b38482850161100a565b91505092915050565b6000602082840312156111ce57600080fd5b600082013567ffffffffffffffff8111156111e857600080fd5b6111f48482850161103b565b91505092915050565b6000806000806000806080878903121561121657600080fd5b600087013567ffffffffffffffff81111561123057600080fd5b61123c89828a0161103b565b965050602087013567ffffffffffffffff81111561125957600080fd5b61126589828a01610fab565b9550955050604087013567ffffffffffffffff81111561128457600080fd5b61129089828a01610fab565b935093505060606112a389828a01611056565b9150509295509295509295565b6000602082840312156112c257600080fd5b60006112d08482850161106b565b91505092915050565b600080604083850312156112ec57600080fd5b60006112fa85828601611056565b925050602061130b85828601610f6c565b9150509250929050565b61131e81611972565b82525050565b61132d81611906565b82525050565b61133c816118f4565b82525050565b61134b81611918565b82525050565b600061135c826118b1565b61136681856118c7565b93506113768185602086016119cc565b61137f816119ff565b840191505092915050565b6000611395826118b1565b61139f81856118d8565b93506113af8185602086016119cc565b80840191505092915050565b6113c481611984565b82525050565b60006113d5826118bc565b6113df81856118e3565b93506113ef8185602086016119cc565b6113f8816119ff565b840191505092915050565b6000611410601f836118e3565b91507f696e76616c696420666f7277617264657220666f7220726563697069656e74006000830152602082019050919050565b60006114506026836118e3565b91507f4f776e61626c653a206e6577206f776e657220697320746865207a65726f206160008301527f64647265737300000000000000000000000000000000000000000000000000006020830152604082019050919050565b60006114b66019836118e3565b91507f72656c6179206875622061646472657373206e6f7420736574000000000000006000830152602082019050919050565b60006114f66018836118e3565b91507f466f72776172646572206973206e6f74207472757374656400000000000000006000830152602082019050919050565b6000611536602c836118e3565b91507f697354727573746564466f727761726465722072657475726e656420696e766160008301527f6c696420726573706f6e736500000000000000000000000000000000000000006020830152604082019050919050565b600061159c601b836118e3565b91507f697354727573746564466f7277617264657220726576657274656400000000006000830152602082019050919050565b60006115dc6020836118e3565b91507f4f776e61626c653a2063616c6c6572206973206e6f7420746865206f776e65726000830152602082019050919050565b6060820160008201516116256000850182611651565b5060208201516116386020850182611651565b50604082015161164b6040850182611651565b50505050565b61165a81611968565b82525050565b61166981611968565b82525050565b600061167b828461138a565b915081905092915050565b600060208201905061169b6000830184611333565b92915050565b60006020820190506116b66000830184611315565b92915050565b600060408201905081810360008301526116d68185611351565b90506116e56020830184611342565b9392505050565b600060208201905061170160008301846113bb565b92915050565b6000602082019050818103600083015261172181846113ca565b905092915050565b6000602082019050818103600083015261174281611403565b9050919050565b6000602082019050818103600083015261176281611443565b9050919050565b60006020820190508181036000830152611782816114a9565b9050919050565b600060208201905081810360008301526117a2816114e9565b9050919050565b600060208201905081810360008301526117c281611529565b9050919050565b600060208201905081810360008301526117e28161158f565b9050919050565b60006020820190508181036000830152611802816115cf565b9050919050565b600060608201905061181e600083018461160f565b92915050565b60006020820190506118396000830184611660565b92915050565b60006040820190506118546000830185611660565b6118616020830184611324565b9392505050565b60008235600160c00383360303811261188057600080fd5b80830191505092915050565b600082356001610100038336030381126118a557600080fd5b80830191505092915050565b600081519050919050565b600081519050919050565b600082825260208201905092915050565b600081905092915050565b600082825260208201905092915050565b60006118ff82611948565b9050919050565b600061191182611948565b9050919050565b60008115159050919050565b600061192f826118f4565b9050919050565b6000611941826118f4565b9050919050565b600073ffffffffffffffffffffffffffffffffffffffff82169050919050565b6000819050919050565b600061197d826119a8565b9050919050565b600061198f82611996565b9050919050565b60006119a182611948565b9050919050565b60006119b3826119ba565b9050919050565b60006119c582611948565b9050919050565b60005b838110156119ea5780820151818401526020810190506119cf565b838111156119f9576000848401525b50505050565b6000601f19601f8301169050919050565b611a19816118f4565b8114611a2457600080fd5b50565b611a3081611906565b8114611a3b57600080fd5b50565b611a4781611918565b8114611a5257600080fd5b50565b611a5e81611924565b8114611a6957600080fd5b50565b611a7581611936565b8114611a8057600080fd5b50565b611a8c81611968565b8114611a9757600080fd5b5056fe322e302e302b6f70656e67736e2e61636365707465766572797468696e672e697061796d6173746572a2646970667358221220980d99290f9c01ed3bcd06feba3c5d4db7adcc38774d67685aadbb08b309eeab64736f6c634300060a0033",
  "immutableReferences": {},
  "source": "//SPDX-License-Identifier: MIT\r\npragma solidity ^0.6.10;\r\npragma experimental ABIEncoderV2;\r\n\r\nimport \"./lib/BasePaymaster.sol\";\r\n\r\n// accept everything.\r\n// this paymaster accepts any request.\r\n//\r\n// NOTE: Do NOT use this contract on a mainnet: it accepts anything, so anyone can \"grief\" it and drain its account\r\n\r\ncontract AcceptEverythingPaymaster is BasePaymaster {\r\n\r\n    function versionPaymaster() external view override virtual returns (string memory){\r\n        return \"2.0.0+opengsn.accepteverything.ipaymaster\";\r\n    }\r\n\r\n    function preRelayedCall(\r\n        GsnTypes.RelayRequest calldata relayRequest,\r\n        bytes calldata signature,\r\n        bytes calldata approvalData,\r\n        uint256 maxPossibleGas\r\n    )\r\n    external\r\n    override\r\n    virtual\r\n    returns (bytes memory context, bool revertOnRecipientRevert) {\r\n        (relayRequest, signature, approvalData, maxPossibleGas);\r\n        return (\"\", false);\r\n    }\r\n\r\n    function postRelayedCall(\r\n        bytes calldata context,\r\n        bool success,\r\n        uint256 gasUseWithoutPost,\r\n        GsnTypes.RelayData calldata relayData\r\n    ) external override virtual {\r\n        (context, success, gasUseWithoutPost, relayData);\r\n    }\r\n\r\n}",
  "sourcePath": "C:\\Dev\\repos\\gsn-demo\\contracts\\AcceptEverythingPaymaster.sol",
  "compiler": {
    "name": "solc",
    "version": "0.6.10+commit.00c0fcaf.Emscripten.clang"
  },
  "schemaVersion": "3.3.3",
  "updatedAt": "2021-02-23T12:49:21.109Z",
  "devdoc": {
    "methods": {
      "owner()": {
        "details": "Returns the address of the current owner."
      },
      "renounceOwnership()": {
        "details": "Leaves the contract without owner. It will not be possible to call `onlyOwner` functions anymore. Can only be called by the current owner. NOTE: Renouncing ownership will leave the contract without an owner, thereby removing any functionality that is only available to the owner."
      },
      "transferOwnership(address)": {
        "details": "Transfers ownership of the contract to a new account (`newOwner`). Can only be called by the current owner."
      }
    }
  },
  "userdoc": {
    "methods": {
      "getRelayHubDeposit()": {
        "notice": "check current deposit on relay hub."
      },
      "withdrawRelayHubDepositTo(uint256,address)": {
        "notice": "withdraw deposit from relayHub"
      }
    }
  }
}