{
  "contractName": "BatchForwarder",
  "abi": [
    {
      "inputs": [],
      "stateMutability": "nonpayable",
      "type": "constructor"
    },
    {
      "anonymous": false,
      "inputs": [
        {
          "indexed": true,
          "internalType": "bytes32",
          "name": "domainSeparator",
          "type": "bytes32"
        },
        {
          "indexed": false,
          "internalType": "bytes",
          "name": "domainValue",
          "type": "bytes"
        }
      ],
      "name": "DomainRegistered",
      "type": "event"
    },
    {
      "anonymous": false,
      "inputs": [
        {
          "indexed": true,
          "internalType": "bytes32",
          "name": "typeHash",
          "type": "bytes32"
        },
        {
          "indexed": false,
          "internalType": "string",
          "name": "typeStr",
          "type": "string"
        }
      ],
      "name": "RequestTypeRegistered",
      "type": "event"
    },
    {
      "inputs": [],
      "name": "EIP712_DOMAIN_TYPE",
      "outputs": [
        {
          "internalType": "string",
          "name": "",
          "type": "string"
        }
      ],
      "stateMutability": "view",
      "type": "function"
    },
    {
      "inputs": [],
      "name": "GENERIC_PARAMS",
      "outputs": [
        {
          "internalType": "string",
          "name": "",
          "type": "string"
        }
      ],
      "stateMutability": "view",
      "type": "function"
    },
    {
      "inputs": [
        {
          "components": [
            {
              "internalType": "address",
              "name": "from",
              "type": "address"
            },
            {
              "internalType": "address",
              "name": "to",
              "type": "address"
            },
            {
              "internalType": "uint256",
              "name": "value",
              "type": "uint256"
            },
            {
              "internalType": "uint256",
              "name": "gas",
              "type": "uint256"
            },
            {
              "internalType": "uint256",
              "name": "nonce",
              "type": "uint256"
            },
            {
              "internalType": "bytes",
              "name": "data",
              "type": "bytes"
            }
          ],
          "internalType": "struct IForwarder.ForwardRequest",
          "name": "req",
          "type": "tuple"
        },
        {
          "internalType": "bytes32",
          "name": "requestTypeHash",
          "type": "bytes32"
        },
        {
          "internalType": "bytes",
          "name": "suffixData",
          "type": "bytes"
        }
      ],
      "name": "_getEncoded",
      "outputs": [
        {
          "internalType": "bytes",
          "name": "",
          "type": "bytes"
        }
      ],
      "stateMutability": "pure",
      "type": "function"
    },
    {
      "inputs": [
        {
          "internalType": "bytes32",
          "name": "",
          "type": "bytes32"
        }
      ],
      "name": "domains",
      "outputs": [
        {
          "internalType": "bool",
          "name": "",
          "type": "bool"
        }
      ],
      "stateMutability": "view",
      "type": "function"
    },
    {
      "inputs": [
        {
          "components": [
            {
              "internalType": "address",
              "name": "from",
              "type": "address"
            },
            {
              "internalType": "address",
              "name": "to",
              "type": "address"
            },
            {
              "internalType": "uint256",
              "name": "value",
              "type": "uint256"
            },
            {
              "internalType": "uint256",
              "name": "gas",
              "type": "uint256"
            },
            {
              "internalType": "uint256",
              "name": "nonce",
              "type": "uint256"
            },
            {
              "internalType": "bytes",
              "name": "data",
              "type": "bytes"
            }
          ],
          "internalType": "struct IForwarder.ForwardRequest",
          "name": "req",
          "type": "tuple"
        },
        {
          "internalType": "bytes32",
          "name": "domainSeparator",
          "type": "bytes32"
        },
        {
          "internalType": "bytes32",
          "name": "requestTypeHash",
          "type": "bytes32"
        },
        {
          "internalType": "bytes",
          "name": "suffixData",
          "type": "bytes"
        },
        {
          "internalType": "bytes",
          "name": "sig",
          "type": "bytes"
        }
      ],
      "name": "execute",
      "outputs": [
        {
          "internalType": "bool",
          "name": "success",
          "type": "bool"
        },
        {
          "internalType": "bytes",
          "name": "ret",
          "type": "bytes"
        }
      ],
      "stateMutability": "payable",
      "type": "function"
    },
    {
      "inputs": [
        {
          "internalType": "address",
          "name": "from",
          "type": "address"
        }
      ],
      "name": "getNonce",
      "outputs": [
        {
          "internalType": "uint256",
          "name": "",
          "type": "uint256"
        }
      ],
      "stateMutability": "view",
      "type": "function"
    },
    {
      "inputs": [
        {
          "internalType": "address",
          "name": "forwarder",
          "type": "address"
        }
      ],
      "name": "isTrustedForwarder",
      "outputs": [
        {
          "internalType": "bool",
          "name": "",
          "type": "bool"
        }
      ],
      "stateMutability": "view",
      "type": "function"
    },
    {
      "inputs": [
        {
          "internalType": "string",
          "name": "name",
          "type": "string"
        },
        {
          "internalType": "string",
          "name": "version",
          "type": "string"
        }
      ],
      "name": "registerDomainSeparator",
      "outputs": [],
      "stateMutability": "nonpayable",
      "type": "function"
    },
    {
      "inputs": [
        {
          "internalType": "string",
          "name": "typeName",
          "type": "string"
        },
        {
          "internalType": "string",
          "name": "typeSuffix",
          "type": "string"
        }
      ],
      "name": "registerRequestType",
      "outputs": [],
      "stateMutability": "nonpayable",
      "type": "function"
    },
    {
      "inputs": [],
      "name": "trustedForwarder",
      "outputs": [
        {
          "internalType": "address",
          "name": "",
          "type": "address"
        }
      ],
      "stateMutability": "view",
      "type": "function"
    },
    {
      "inputs": [
        {
          "internalType": "bytes32",
          "name": "",
          "type": "bytes32"
        }
      ],
      "name": "typeHashes",
      "outputs": [
        {
          "internalType": "bool",
          "name": "",
          "type": "bool"
        }
      ],
      "stateMutability": "view",
      "type": "function"
    },
    {
      "inputs": [
        {
          "components": [
            {
              "internalType": "address",
              "name": "from",
              "type": "address"
            },
            {
              "internalType": "address",
              "name": "to",
              "type": "address"
            },
            {
              "internalType": "uint256",
              "name": "value",
              "type": "uint256"
            },
            {
              "internalType": "uint256",
              "name": "gas",
              "type": "uint256"
            },
            {
              "internalType": "uint256",
              "name": "nonce",
              "type": "uint256"
            },
            {
              "internalType": "bytes",
              "name": "data",
              "type": "bytes"
            }
          ],
          "internalType": "struct IForwarder.ForwardRequest",
          "name": "req",
          "type": "tuple"
        },
        {
          "internalType": "bytes32",
          "name": "domainSeparator",
          "type": "bytes32"
        },
        {
          "internalType": "bytes32",
          "name": "requestTypeHash",
          "type": "bytes32"
        },
        {
          "internalType": "bytes",
          "name": "suffixData",
          "type": "bytes"
        },
        {
          "internalType": "bytes",
          "name": "sig",
          "type": "bytes"
        }
      ],
      "name": "verify",
      "outputs": [],
      "stateMutability": "view",
      "type": "function"
    },
    {
      "inputs": [],
      "name": "versionRecipient",
      "outputs": [
        {
          "internalType": "string",
          "name": "",
          "type": "string"
        }
      ],
      "stateMutability": "view",
      "type": "function"
    },
    {
      "stateMutability": "payable",
      "type": "receive"
    },
    {
      "inputs": [
        {
          "internalType": "address[]",
          "name": "targets",
          "type": "address[]"
        },
        {
          "internalType": "bytes[]",
          "name": "encodedFunctions",
          "type": "bytes[]"
        }
      ],
      "name": "sendBatch",
      "outputs": [],
      "stateMutability": "nonpayable",
      "type": "function"
    }
  ],
  "bytecode": "0x6080604052604051806060016040528060258152602001620025d860259139600490805190602001906200003592919062000151565b503480156200004357600080fd5b5060606040518060800160405280604a8152602001620025fd604a9139604051602001620000729190620002fc565b60405160208183030381529060405290506200009481620000dc60201b60201c565b5030600360006101000a81548173ffffffffffffffffffffffffffffffffffffffff021916908373ffffffffffffffffffffffffffffffffffffffff160217905550620003c1565b600081805190602001209050600160008083815260200190815260200160002060006101000a81548160ff021916908315150217905550807f64d6bce64323458c44643c51fe45113efc882082f7b7fd5f09f0d69d2eedb202836040516200014591906200032f565b60405180910390a25050565b828054600181600116156101000203166002900490600052602060002090601f016020900481019282601f106200019457805160ff1916838001178555620001c5565b82800160010185558215620001c5579182015b82811115620001c4578251825591602001919060010190620001a7565b5b509050620001d49190620001d8565b5090565b620001fd91905b80821115620001f9576000816000905550600101620001df565b5090565b90565b60006200020d8262000353565b6200021981856200035e565b93506200022b8185602086016200037a565b6200023681620003b0565b840191505092915050565b60006200024e8262000353565b6200025a81856200036f565b93506200026c8185602086016200037a565b80840191505092915050565b600062000287600f836200036f565b91507f466f7277617264526571756573742800000000000000000000000000000000006000830152600f82019050919050565b6000620002c96001836200036f565b91507f29000000000000000000000000000000000000000000000000000000000000006000830152600182019050919050565b6000620003098262000278565b915062000317828462000241565b91506200032482620002ba565b915081905092915050565b600060208201905081810360008301526200034b818462000200565b905092915050565b600081519050919050565b600082825260208201905092915050565b600081905092915050565b60005b838110156200039a5780820151818401526020810190506200037d565b83811115620003aa576000848401525b50505050565b6000601f19601f8301169050919050565b61220780620003d16000396000f3fe6080604052600436106100e15760003560e01c80639c7b45921161007f578063c45c267411610059578063c45c2674146102cb578063c722f17714610308578063cdf5735a14610345578063d9210be514610376576100e8565b80639c7b45921461024e5780639f25562614610277578063c3f28abd146102a0576100e8565b8063486ff0cd116100bb578063486ff0cd14610192578063572b6c05146101bd5780637da0a877146101fa578063992d82c314610225576100e8565b8063066a310c146100ed57806321fe98df146101185780632d0335ab14610155576100e8565b366100e857005b600080fd5b3480156100f957600080fd5b5061010261039f565b60405161010f9190611d96565b60405180910390f35b34801561012457600080fd5b5061013f600480360381019061013a9190611405565b6103bb565b60405161014c9190611c91565b60405180910390f35b34801561016157600080fd5b5061017c60048036038101906101779190611367565b6103db565b6040516101899190611ed8565b60405180910390f35b34801561019e57600080fd5b506101a7610424565b6040516101b49190611d96565b60405180910390f35b3480156101c957600080fd5b506101e460048036038101906101df9190611367565b6104c2565b6040516101f19190611c91565b60405180910390f35b34801561020657600080fd5b5061020f61051c565b60405161021c9190611c15565b60405180910390f35b34801561023157600080fd5b5061024c600480360381019061024791906114a3565b610542565b005b34801561025a57600080fd5b506102756004803603810190610270919061142e565b6105e9565b005b34801561028357600080fd5b5061029e60048036038101906102999190611390565b6106df565b005b3480156102ac57600080fd5b506102b5610803565b6040516102c29190611d96565b60405180910390f35b3480156102d757600080fd5b506102f260048036038101906102ed919061156b565b61081f565b6040516102ff9190611d74565b60405180910390f35b34801561031457600080fd5b5061032f600480360381019061032a9190611405565b610896565b60405161033c9190611c91565b60405180910390f35b61035f600480360381019061035a91906114a3565b6108b6565b60405161036d929190611cac565b60405180910390f35b34801561038257600080fd5b5061039d6004803603810190610398919061142e565b610a70565b005b6040518060800160405280604a8152602001612136604a913981565b60006020528060005260406000206000915054906101000a900460ff1681565b6000600260008373ffffffffffffffffffffffffffffffffffffffff1673ffffffffffffffffffffffffffffffffffffffff168152602001908152602001600020549050919050565b60048054600181600116156101000203166002900480601f0160208091040260200160405190810160405280929190818152602001828054600181600116156101000203166002900480156104ba5780601f1061048f576101008083540402835291602001916104ba565b820191906000526020600020905b81548152906001019060200180831161049d57829003601f168201915b505050505081565b6000600360009054906101000a900473ffffffffffffffffffffffffffffffffffffffff1673ffffffffffffffffffffffffffffffffffffffff168273ffffffffffffffffffffffffffffffffffffffff16149050919050565b600360009054906101000a900473ffffffffffffffffffffffffffffffffffffffff1681565b61054b87610bd1565b6105e087878787878080601f016020809104026020016040519081016040528093929190818152602001838380828437600081840152601f19601f8201169050808301925050505050505086868080601f016020809104026020016040519081016040528093929190818152602001838380828437600081840152601f19601f82011690508083019250505050505050610c5d565b50505050505050565b6000469050606060405180608001604052806052815260200161218060529139805190602001208686604051610620929190611b11565b60405180910390208585604051610638929190611b11565b60405180910390208430604051602001610656959493929190611cdc565b6040516020818303038152906040529050600081805190602001209050600180600083815260200190815260200160002060006101000a81548160ff021916908315150217905550807f4bc68689cbe89a4a6333a3ab0a70093874da3e5bfb71e93102027f3f073687d8836040516106ce9190611d74565b60405180910390a250505050505050565b8181905084849050146106f157600080fd5b60006106fb610de6565b905060008090505b858590508110156107fb576000606087878481811061071e57fe5b90506020020160208101906107339190611367565b73ffffffffffffffffffffffffffffffffffffffff1686868581811061075557fe5b90506020028101906107679190611ef3565b8660405160200161077a93929190611b2a565b6040516020818303038152906040526040516107969190611b54565b6000604051808303816000865af19150503d80600081146107d3576040519150601f19603f3d011682016040523d82523d6000602084013e6107d8565b606091505b5091509150816107ec576107eb81610e22565b5b50508080600101915050610703565b505050505050565b6040518060800160405280605281526020016121806052913981565b606082846000015185602001518660400151876060015188608001518960a001518051906020012060405160200161085c96959493929190611c30565b6040516020818303038152906040528360405160200161087e93929190611adc565b60405160208183030381529060405290509392505050565b60016020528060005260406000206000915054906101000a900460ff1681565b600060606108c389610bd1565b61095889898989898080601f016020809104026020016040519081016040528093929190818152602001838380828437600081840152601f19601f8201169050808301925050505050505088888080601f016020809104026020016040519081016040528093929190818152602001838380828437600081840152601f19601f82011690508083019250505050505050610c5d565b61096189610e2a565b886020015173ffffffffffffffffffffffffffffffffffffffff1689606001518a604001518b60a001518c600001516040516020016109a1929190611b6b565b6040516020818303038152906040526040516109bd9190611b54565b600060405180830381858888f193505050503d80600081146109fb576040519150601f19603f3d011682016040523d82523d6000602084013e610a00565b606091505b5080925081935050506000471115610a5e57886000015173ffffffffffffffffffffffffffffffffffffffff166108fc479081150290604051600060405180830381858888f19350505050158015610a5c573d6000803e3d6000fd5b505b81819150915097509795505050505050565b60008090505b84849050811015610b7c576000858583818110610a8f57fe5b9050013560f81c60f81b90507f2800000000000000000000000000000000000000000000000000000000000000817effffffffffffffffffffffffffffffffffffffffffffffffffffffffffffff191614158015610b2f57507f2900000000000000000000000000000000000000000000000000000000000000817effffffffffffffffffffffffffffffffffffffffffffffffffffffffffffff191614155b610b6e576040517f08c379a0000000000000000000000000000000000000000000000000000000008152600401610b6590611df8565b60405180910390fd5b508080600101915050610a76565b50606084846040518060800160405280604a8152602001612136604a91398585604051602001610bb0959493929190611b93565b6040516020818303038152906040529050610bca81610e80565b5050505050565b806080015160026000836000015173ffffffffffffffffffffffffffffffffffffffff1673ffffffffffffffffffffffffffffffffffffffff1681526020019081526020016000205414610c5a576040517f08c379a0000000000000000000000000000000000000000000000000000000008152600401610c5190611e18565b60405180910390fd5b50565b6001600085815260200190815260200160002060009054906101000a900460ff16610cbd576040517f08c379a0000000000000000000000000000000000000000000000000000000008152600401610cb490611e78565b60405180910390fd5b60008084815260200190815260200160002060009054906101000a900460ff16610d1c576040517f08c379a0000000000000000000000000000000000000000000000000000000008152600401610d1390611e58565b60405180910390fd5b600084610d2a87868661081f565b80519060200120604051602001610d42929190611bde565b604051602081830303815290604052805190602001209050856000015173ffffffffffffffffffffffffffffffffffffffff16610d888383610ef390919063ffffffff16565b73ffffffffffffffffffffffffffffffffffffffff1614610dde576040517f08c379a0000000000000000000000000000000000000000000000000000000008152600401610dd590611eb8565b60405180910390fd5b505050505050565b60006018600036905010158015610e025750610e01336104c2565b5b15610e1657601436033560601c9050610e1e565b339050610e1f565b5b90565b805160208201fd5b60026000826000015173ffffffffffffffffffffffffffffffffffffffff1673ffffffffffffffffffffffffffffffffffffffff1681526020019081526020016000206000815480929190600101919050555050565b600081805190602001209050600160008083815260200190815260200160002060006101000a81548160ff021916908315150217905550807f64d6bce64323458c44643c51fe45113efc882082f7b7fd5f09f0d69d2eedb20283604051610ee79190611d96565b60405180910390a25050565b60006041825114610f39576040517f08c379a0000000000000000000000000000000000000000000000000000000008152600401610f3090611dd8565b60405180910390fd5b60008060006020850151925060408501519150606085015160001a9050610f6286828585610f6d565b935050505092915050565b60007f7fffffffffffffffffffffffffffffff5d576e7357a4501ddfe92f46681b20a08260001c1115610fd5576040517f08c379a0000000000000000000000000000000000000000000000000000000008152600401610fcc90611e38565b60405180910390fd5b601b8460ff161480610fea5750601c8460ff16145b611029576040517f08c379a000000000000000000000000000000000000000000000000000000000815260040161102090611e98565b60405180910390fd5b60006001868686866040516000815260200160405260405161104e9493929190611d2f565b6020604051602081039080840390855afa158015611070573d6000803e3d6000fd5b505050602060405103519050600073ffffffffffffffffffffffffffffffffffffffff168173ffffffffffffffffffffffffffffffffffffffff1614156110ec576040517f08c379a00000000000000000000000000000000000000000000000000000000081526004016110e390611db8565b60405180910390fd5b80915050949350505050565b600081359050611107816120f0565b92915050565b60008083601f84011261111f57600080fd5b8235905067ffffffffffffffff81111561113857600080fd5b60208301915083602082028301111561115057600080fd5b9250929050565b60008083601f84011261116957600080fd5b8235905067ffffffffffffffff81111561118257600080fd5b60208301915083602082028301111561119a57600080fd5b9250929050565b6000813590506111b081612107565b92915050565b60008083601f8401126111c857600080fd5b8235905067ffffffffffffffff8111156111e157600080fd5b6020830191508360018202830111156111f957600080fd5b9250929050565b600082601f83011261121157600080fd5b813561122461121f82611f77565b611f4a565b9150808252602083016020830185838301111561124057600080fd5b61124b838284612062565b50505092915050565b60008083601f84011261126657600080fd5b8235905067ffffffffffffffff81111561127f57600080fd5b60208301915083600182028301111561129757600080fd5b9250929050565b600060c082840312156112b057600080fd5b6112ba60c0611f4a565b905060006112ca848285016110f8565b60008301525060206112de848285016110f8565b60208301525060406112f284828501611352565b604083015250606061130684828501611352565b606083015250608061131a84828501611352565b60808301525060a082013567ffffffffffffffff81111561133a57600080fd5b61134684828501611200565b60a08301525092915050565b6000813590506113618161211e565b92915050565b60006020828403121561137957600080fd5b6000611387848285016110f8565b91505092915050565b600080600080604085870312156113a657600080fd5b600085013567ffffffffffffffff8111156113c057600080fd5b6113cc8782880161110d565b9450945050602085013567ffffffffffffffff8111156113eb57600080fd5b6113f787828801611157565b925092505092959194509250565b60006020828403121561141757600080fd5b6000611425848285016111a1565b91505092915050565b6000806000806040858703121561144457600080fd5b600085013567ffffffffffffffff81111561145e57600080fd5b61146a87828801611254565b9450945050602085013567ffffffffffffffff81111561148957600080fd5b61149587828801611254565b925092505092959194509250565b600080600080600080600060a0888a0312156114be57600080fd5b600088013567ffffffffffffffff8111156114d857600080fd5b6114e48a828b0161129e565b97505060206114f58a828b016111a1565b96505060406115068a828b016111a1565b955050606088013567ffffffffffffffff81111561152357600080fd5b61152f8a828b016111b6565b9450945050608088013567ffffffffffffffff81111561154e57600080fd5b61155a8a828b016111b6565b925092505092959891949750929550565b60008060006060848603121561158057600080fd5b600084013567ffffffffffffffff81111561159a57600080fd5b6115a68682870161129e565b93505060206115b7868287016111a1565b925050604084013567ffffffffffffffff8111156115d457600080fd5b6115e086828701611200565b9150509250925092565b6115f381612003565b82525050565b61160281611ff1565b82525050565b61161961161482611ff1565b6120a4565b82525050565b61162881612015565b82525050565b61163781612021565b82525050565b61164e61164982612021565b6120b6565b82525050565b60006116608385611fca565b935061166d838584612062565b82840190509392505050565b600061168482611fa3565b61168e8185611fb9565b935061169e818560208601612071565b6116a7816120d2565b840191505092915050565b60006116bd82611fa3565b6116c78185611fca565b93506116d7818560208601612071565b80840191505092915050565b60006116ef8385611fe6565b93506116fc838584612062565b82840190509392505050565b600061171382611fae565b61171d8185611fd5565b935061172d818560208601612071565b611736816120d2565b840191505092915050565b600061174c82611fae565b6117568185611fe6565b9350611766818560208601612071565b80840191505092915050565b600061177f601883611fd5565b91507f45434453413a20696e76616c6964207369676e617475726500000000000000006000830152602082019050919050565b60006117bf601f83611fd5565b91507f45434453413a20696e76616c6964207369676e6174757265206c656e677468006000830152602082019050919050565b60006117ff601083611fd5565b91507f696e76616c696420747970656e616d65000000000000000000000000000000006000830152602082019050919050565b600061183f600e83611fd5565b91507f6e6f6e6365206d69736d617463680000000000000000000000000000000000006000830152602082019050919050565b600061187f600283611fe6565b91507f19010000000000000000000000000000000000000000000000000000000000006000830152600282019050919050565b60006118bf600183611fe6565b91507f2c000000000000000000000000000000000000000000000000000000000000006000830152600182019050919050565b60006118ff600183611fe6565b91507f28000000000000000000000000000000000000000000000000000000000000006000830152600182019050919050565b600061193f602283611fd5565b91507f45434453413a20696e76616c6964207369676e6174757265202773272076616c60008301527f75650000000000000000000000000000000000000000000000000000000000006020830152604082019050919050565b60006119a5601d83611fd5565b91507f756e7265676973746572656420726571756573742074797065686173680000006000830152602082019050919050565b60006119e5601d83611fd5565b91507f756e7265676973746572656420646f6d61696e20736570617261746f720000006000830152602082019050919050565b6000611a25602283611fd5565b91507f45434453413a20696e76616c6964207369676e6174757265202776272076616c60008301527f75650000000000000000000000000000000000000000000000000000000000006020830152604082019050919050565b6000611a8b601283611fd5565b91507f7369676e6174757265206d69736d6174636800000000000000000000000000006000830152602082019050919050565b611ac78161204b565b82525050565b611ad681612055565b82525050565b6000611ae8828661163d565b602082019150611af882856116b2565b9150611b0482846116b2565b9150819050949350505050565b6000611b1e828486611654565b91508190509392505050565b6000611b37828587611654565b9150611b438284611608565b601482019150819050949350505050565b6000611b6082846116b2565b915081905092915050565b6000611b7782856116b2565b9150611b838284611608565b6014820191508190509392505050565b6000611ba08287896116e3565b9150611bab826118f2565b9150611bb78286611741565b9150611bc2826118b2565b9150611bcf8284866116e3565b91508190509695505050505050565b6000611be982611872565b9150611bf5828561163d565b602082019150611c05828461163d565b6020820191508190509392505050565b6000602082019050611c2a60008301846115f9565b92915050565b600060c082019050611c4560008301896115f9565b611c5260208301886115f9565b611c5f6040830187611abe565b611c6c6060830186611abe565b611c796080830185611abe565b611c8660a083018461162e565b979650505050505050565b6000602082019050611ca6600083018461161f565b92915050565b6000604082019050611cc1600083018561161f565b8181036020830152611cd38184611679565b90509392505050565b600060a082019050611cf1600083018861162e565b611cfe602083018761162e565b611d0b604083018661162e565b611d186060830185611abe565b611d2560808301846115ea565b9695505050505050565b6000608082019050611d44600083018761162e565b611d516020830186611acd565b611d5e604083018561162e565b611d6b606083018461162e565b95945050505050565b60006020820190508181036000830152611d8e8184611679565b905092915050565b60006020820190508181036000830152611db08184611708565b905092915050565b60006020820190508181036000830152611dd181611772565b9050919050565b60006020820190508181036000830152611df1816117b2565b9050919050565b60006020820190508181036000830152611e11816117f2565b9050919050565b60006020820190508181036000830152611e3181611832565b9050919050565b60006020820190508181036000830152611e5181611932565b9050919050565b60006020820190508181036000830152611e7181611998565b9050919050565b60006020820190508181036000830152611e91816119d8565b9050919050565b60006020820190508181036000830152611eb181611a18565b9050919050565b60006020820190508181036000830152611ed181611a7e565b9050919050565b6000602082019050611eed6000830184611abe565b92915050565b60008083356001602003843603038112611f0c57600080fd5b80840192508235915067ffffffffffffffff821115611f2a57600080fd5b602083019250600182023603831315611f4257600080fd5b509250929050565b6000604051905081810181811067ffffffffffffffff82111715611f6d57600080fd5b8060405250919050565b600067ffffffffffffffff821115611f8e57600080fd5b601f19601f8301169050602081019050919050565b600081519050919050565b600081519050919050565b600082825260208201905092915050565b600081905092915050565b600082825260208201905092915050565b600081905092915050565b6000611ffc8261202b565b9050919050565b600061200e8261202b565b9050919050565b60008115159050919050565b6000819050919050565b600073ffffffffffffffffffffffffffffffffffffffff82169050919050565b6000819050919050565b600060ff82169050919050565b82818337600083830152505050565b60005b8381101561208f578082015181840152602081019050612074565b8381111561209e576000848401525b50505050565b60006120af826120c0565b9050919050565b6000819050919050565b60006120cb826120e3565b9050919050565b6000601f19601f8301169050919050565b60008160601b9050919050565b6120f981611ff1565b811461210457600080fd5b50565b61211081612021565b811461211b57600080fd5b50565b6121278161204b565b811461213257600080fd5b5056fe616464726573732066726f6d2c6164647265737320746f2c75696e743235362076616c75652c75696e74323536206761732c75696e74323536206e6f6e63652c62797465732064617461454950373132446f6d61696e28737472696e67206e616d652c737472696e672076657273696f6e2c75696e7432353620636861696e49642c6164647265737320766572696679696e67436f6e747261637429a26469706673582212200779c6b32693197ed94d583bd32eda4eefb91a4118a1da2d4204bfb450787d8f64736f6c634300060a0033322e302e302b6f70656e67736e2e626174636865642e6972656c6179726563697069656e74616464726573732066726f6d2c6164647265737320746f2c75696e743235362076616c75652c75696e74323536206761732c75696e74323536206e6f6e63652c62797465732064617461",
  "immutableReferences": {},
  "source": "// SPDX-License-Identifier:MIT\npragma solidity ^0.6.2;\npragma experimental ABIEncoderV2;\n\nimport \"./forwarder/Forwarder.sol\";\nimport \"./BaseRelayRecipient.sol\";\nimport \"./utils/GsnUtils.sol\";\n\n/**\n * batch forwarder support calling a method sendBatch in the forwarder itself.\n * NOTE: the \"target\" of the request should be the BatchForwarder itself\n */\ncontract BatchForwarder is Forwarder, BaseRelayRecipient {\n\n    string public override versionRecipient = \"2.0.0+opengsn.batched.irelayrecipient\";\n\n    constructor() public {\n        //needed for sendBatch\n        trustedForwarder = address(this);\n    }\n\n    function sendBatch(address[] calldata targets, bytes[] calldata encodedFunctions) external {\n        require(targets.length == encodedFunctions.length);\n        address sender = _msgSender();\n        for (uint i = 0; i < targets.length; i++) {\n            // solhint-disable-next-line avoid-low-level-calls\n            (bool success, bytes memory ret) = targets[i].call(abi.encodePacked(encodedFunctions[i], sender));\n            // TODO: currently, relayed transaction does not report exception string. when it does, this\n            // will propagate the inner call exception description\n            if (!success){\n                //re-throw the revert with the same revert reason.\n                GsnUtils.revertWithData(ret);\n            }\n        }\n    }\n}\n",
  "sourcePath": "C:/Dev/repos/gsn-demo/contracts/lib/BatchForwarder.sol",
  "compiler": {
    "name": "solc",
    "version": "0.6.10+commit.00c0fcaf.Emscripten.clang"
  },
  "schemaVersion": "3.3.3",
  "updatedAt": "2021-02-23T12:49:21.135Z",
  "devdoc": {
    "methods": {}
  },
  "userdoc": {
    "methods": {},
    "notice": "batch forwarder support calling a method sendBatch in the forwarder itself. NOTE: the \"target\" of the request should be the BatchForwarder itself"
  }
}