{
  "contractName": "Penalizer",
  "abi": [
    {
      "inputs": [],
      "name": "versionPenalizer",
      "outputs": [
        {
          "internalType": "string",
          "name": "",
          "type": "string"
        }
      ],
      "stateMutability": "view",
      "type": "function"
    },
    {
      "inputs": [
        {
          "internalType": "bytes",
          "name": "unsignedTx1",
          "type": "bytes"
        },
        {
          "internalType": "bytes",
          "name": "signature1",
          "type": "bytes"
        },
        {
          "internalType": "bytes",
          "name": "unsignedTx2",
          "type": "bytes"
        },
        {
          "internalType": "bytes",
          "name": "signature2",
          "type": "bytes"
        },
        {
          "internalType": "contract IRelayHub",
          "name": "hub",
          "type": "address"
        }
      ],
      "name": "penalizeRepeatedNonce",
      "outputs": [],
      "stateMutability": "nonpayable",
      "type": "function"
    },
    {
      "inputs": [
        {
          "internalType": "bytes",
          "name": "unsignedTx",
          "type": "bytes"
        },
        {
          "internalType": "bytes",
          "name": "signature",
          "type": "bytes"
        },
        {
          "internalType": "contract IRelayHub",
          "name": "hub",
          "type": "address"
        }
      ],
      "name": "penalizeIllegalTransaction",
      "outputs": [],
      "stateMutability": "nonpayable",
      "type": "function"
    }
  ],
  "bytecode": "0x608060405260405180606001604052806022815260200162001e496022913960009080519060200190620000359291906200004a565b503480156200004357600080fd5b50620000f9565b828054600181600116156101000203166002900490600052602060002090601f016020900481019282601f106200008d57805160ff1916838001178555620000be565b82800160010185558215620000be579182015b82811115620000bd578251825591602001919060010190620000a0565b5b509050620000cd9190620000d1565b5090565b620000f691905b80821115620000f2576000816000905550600101620000d8565b5090565b90565b611d4080620001096000396000f3fe608060405234801561001057600080fd5b50600436106100415760003560e01c806339ee150a14610046578063a031365714610062578063f913fe3e14610080575b600080fd5b610060600480360381019061005b91906112ea565b61009c565b005b61006a610333565b6040516100779190611928565b60405180910390f35b61009a60048036038101906100959190611213565b6103d1565b005b808073ffffffffffffffffffffffffffffffffffffffff16632ad311b5336040518263ffffffff1660e01b81526004016100d6919061189f565b60206040518083038186803b1580156100ee57600080fd5b505afa158015610102573d6000803e3d6000fd5b505050506040513d601f19601f8201168201806040525081019061012691906111ea565b610165576040517f08c379a000000000000000000000000000000000000000000000000000000000815260040161015c906119ca565b60405180910390fd5b61016d611106565b6101768561073f565b90508273ffffffffffffffffffffffffffffffffffffffff16816060015173ffffffffffffffffffffffffffffffffffffffff1614156102745760006101bf8260a001516107b9565b905060006327b4256a60e01b7bffffffffffffffffffffffffffffffffffffffffffffffffffffffff1916827bffffffffffffffffffffffffffffffffffffffffffffffffffffffff191614159050600083604001516102248560a0015160046107cd565b1415905081806102315750805b610270576040517f08c379a00000000000000000000000000000000000000000000000000000000081526004016102679061198a565b60405180910390fd5b5050505b60006102af858760405160200161028b919061183e565b604051602081830303815290604052805190602001206107e790919063ffffffff16565b9050600073ffffffffffffffffffffffffffffffffffffffff168173ffffffffffffffffffffffffffffffffffffffff161415610321576040517f08c379a000000000000000000000000000000000000000000000000000000000815260040161031890611aea565b60405180910390fd5b61032b8185610861565b505050505050565b60008054600181600116156101000203166002900480601f0160208091040260200160405190810160405280929190818152602001828054600181600116156101000203166002900480156103c95780601f1061039e576101008083540402835291602001916103c9565b820191906000526020600020905b8154815290600101906020018083116103ac57829003601f168201915b505050505081565b808073ffffffffffffffffffffffffffffffffffffffff16632ad311b5336040518263ffffffff1660e01b815260040161040b919061189f565b60206040518083038186803b15801561042357600080fd5b505afa158015610437573d6000803e3d6000fd5b505050506040513d601f19601f8201168201806040525081019061045b91906111ea565b61049a576040517f08c379a0000000000000000000000000000000000000000000000000000000008152600401610491906119ca565b60405180910390fd5b60006104d586886040516020016104b1919061183e565b604051602081830303815290604052805190602001206107e790919063ffffffff16565b9050600061051285876040516020016104ee919061183e565b604051602081830303815290604052805190602001206107e790919063ffffffff16565b90508073ffffffffffffffffffffffffffffffffffffffff168273ffffffffffffffffffffffffffffffffffffffff1614610582576040517f08c379a000000000000000000000000000000000000000000000000000000000815260040161057990611a4a565b60405180910390fd5b600073ffffffffffffffffffffffffffffffffffffffff168273ffffffffffffffffffffffffffffffffffffffff1614156105f2576040517f08c379a00000000000000000000000000000000000000000000000000000000081526004016105e990611aea565b60405180910390fd5b6105fa611106565b6106038961073f565b905061060d611106565b6106168861073f565b90508060000151826000015114610662576040517f08c379a000000000000000000000000000000000000000000000000000000000815260040161065990611a0a565b60405180910390fd5b60608260a0015183604001518460600151856080015160405160200161068b9493929190611855565b604051602081830303815290604052905060608260a001518360400151846060015185608001516040516020016106c59493929190611855565b6040516020818303038152906040529050808051906020012082805190602001201415610727576040517f08c379a000000000000000000000000000000000000000000000000000000000815260040161071e90611a6a565b60405180910390fd5b6107318689610861565b505050505050505050505050565b610747611106565b610750826108d2565b866000018760200188604001896060018a6080018b60a001869052868152508673ffffffffffffffffffffffffffffffffffffffff1673ffffffffffffffffffffffffffffffffffffffff16815250868152508681525086815250505050505050809050919050565b60006107c68260006109b4565b9050919050565b60006107df8360208402600401610a34565b905092915050565b6000604182511461082d576040517f08c379a00000000000000000000000000000000000000000000000000000000081526004016108249061196a565b60405180910390fd5b60008060006020850151925060408501519150606085015160001a905061085686828585610a4e565b935050505092915050565b8073ffffffffffffffffffffffffffffffffffffffff1663ebcd31ac83336040518363ffffffff1660e01b815260040161089c9291906118ba565b600060405180830381600087803b1580156108b657600080fd5b505af11580156108ca573d6000803e3d6000fd5b505050505050565b60008060008060006060806108ee6108e989610bd9565b610c30565b905061090d8160008151811061090057fe5b6020026020010151610d54565b61092a8260018151811061091d57fe5b6020026020010151610d54565b6109478360028151811061093a57fe5b6020026020010151610d54565b6109648460038151811061095757fe5b6020026020010151610d97565b6109818560048151811061097457fe5b6020026020010151610d54565b61099e8660058151811061099157fe5b6020026020010151610df1565b9650965096509650965096505091939550919395565b600060048201835110156109fd576040517f08c379a00000000000000000000000000000000000000000000000000000000081526004016109f490611aca565b60405180910390fd5b6020820183015190507fffffffff000000000000000000000000000000000000000000000000000000008116905080905092915050565b6000610a408383610e83565b60001c905080905092915050565b60007f7fffffffffffffffffffffffffffffff5d576e7357a4501ddfe92f46681b20a08260001c1115610ab6576040517f08c379a0000000000000000000000000000000000000000000000000000000008152600401610aad906119ea565b60405180910390fd5b601b8460ff161480610acb5750601c8460ff16145b610b0a576040517f08c379a0000000000000000000000000000000000000000000000000000000008152600401610b0190611a8a565b60405180910390fd5b600060018686868660405160008152602001604052604051610b2f94939291906118e3565b6020604051602081039080840390855afa158015610b51573d6000803e3d6000fd5b505050602060405103519050600073ffffffffffffffffffffffffffffffffffffffff168173ffffffffffffffffffffffffffffffffffffffff161415610bcd576040517f08c379a0000000000000000000000000000000000000000000000000000000008152600401610bc49061194a565b60405180910390fd5b80915050949350505050565b610be1611152565b600082511415610c095760405180604001604052806000815260200160008152509050610c2b565b6000602083019050604051806040016040528084518152602001828152509150505b919050565b6060610c3b82610ede565b610c7a576040517f08c379a0000000000000000000000000000000000000000000000000000000008152600401610c7190611aaa565b60405180910390fd5b6000610c8583610f17565b90508067ffffffffffffffff81118015610c9e57600080fd5b50604051908082528060200260200182016040528015610cd857816020015b610cc5611152565b815260200190600190039081610cbd5790505b5091506000610cea8460200151610f72565b8460200151019050600080600090505b83811015610d4b57610d0b83610ffb565b9150604051806040016040528083815260200184815250858281518110610d2e57fe5b602002602001018190525081830192508080600101915050610cfa565b50505050919050565b600080610d648360200151610f72565b9050600081846000015103905060008285602001510190506000826020036101000a825104905080945050505050919050565b6000601582600001511115610de1576040517f08c379a0000000000000000000000000000000000000000000000000000000008152600401610dd8906119aa565b60405180910390fd5b610dea82610d54565b9050919050565b60606000610e028360200151610f72565b9050600081846000015103905060608167ffffffffffffffff81118015610e2857600080fd5b506040519080825280601f01601f191660200182016040528015610e5b5781602001600182028036833780820191505090505b5090506000816020019050610e778487602001510182856110ae565b81945050505050919050565b60006020820183511015610ecc576040517f08c379a0000000000000000000000000000000000000000000000000000000008152600401610ec390611a2a565b60405180910390fd5b60208201830151905080905092915050565b600080600083602001519050805160001a915060c060ff168260ff161015610f0b57600092505050610f12565b6001925050505b919050565b600080600090506000610f2d8460200151610f72565b84602001510190506000846000015185602001510190505b80821015610f6757610f5682610ffb565b820191508280600101935050610f45565b829350505050919050565b600080825160001a9050608060ff16811015610f92576000915050610ff6565b60b860ff16811080610fb7575060c060ff168110158015610fb6575060f860ff1681105b5b15610fc6576001915050610ff6565b60c060ff16811015610fe65760018060b80360ff16820301915050610ff6565b60018060f80360ff168203019150505b919050565b600080825160001a9050608060ff1681101561101b5760019150506110a9565b60b860ff16811015611039576001608060ff168203019150506110a9565b60c060ff168110156110695760b78103600184019350806020036101000a845104600182018101935050506110a7565b60f860ff1681101561108757600160c060ff168203019150506110a9565b60f78103600184019350806020036101000a845104600182018101935050505b505b919050565b5b602060ff1681106110de5782518252602060ff1683019250602060ff1682019150602060ff16810390506110af565b6000600182602060ff16036101000a0390508019845116818451168181178552505050505050565b6040518060c00160405280600081526020016000815260200160008152602001600073ffffffffffffffffffffffffffffffffffffffff16815260200160008152602001606081525090565b604051806040016040528060008152602001600081525090565b60008151905061117b81611cdc565b92915050565b600082601f83011261119257600080fd5b81356111a56111a082611b37565b611b0a565b915080825260208301602083018583830111156111c157600080fd5b6111cc838284611c4e565b50505092915050565b6000813590506111e481611cf3565b92915050565b6000602082840312156111fc57600080fd5b600061120a8482850161116c565b91505092915050565b600080600080600060a0868803121561122b57600080fd5b600086013567ffffffffffffffff81111561124557600080fd5b61125188828901611181565b955050602086013567ffffffffffffffff81111561126e57600080fd5b61127a88828901611181565b945050604086013567ffffffffffffffff81111561129757600080fd5b6112a388828901611181565b935050606086013567ffffffffffffffff8111156112c057600080fd5b6112cc88828901611181565b92505060806112dd888289016111d5565b9150509295509295909350565b6000806000606084860312156112ff57600080fd5b600084013567ffffffffffffffff81111561131957600080fd5b61132586828701611181565b935050602084013567ffffffffffffffff81111561134257600080fd5b61134e86828701611181565b925050604061135f868287016111d5565b9150509250925092565b61137281611c18565b82525050565b61138181611ba7565b82525050565b61139081611b95565b82525050565b6113a76113a282611b95565b611c90565b82525050565b6113b681611bc5565b82525050565b60006113c782611b63565b6113d18185611b79565b93506113e1818560208601611c5d565b80840191505092915050565b60006113f882611b6e565b6114028185611b84565b9350611412818560208601611c5d565b61141b81611cbe565b840191505092915050565b6000611433601883611b84565b91507f45434453413a20696e76616c6964207369676e617475726500000000000000006000830152602082019050919050565b6000611473601f83611b84565b91507f45434453413a20696e76616c6964207369676e6174757265206c656e677468006000830152602082019050919050565b60006114b3601783611b84565b91507f4c6567616c2072656c6179207472616e73616374696f6e0000000000000000006000830152602082019050919050565b60006114f3603a83611b84565b91507f496e76616c696420524c504974656d2e2041646472657373657320617265206560008301527f6e636f64656420696e203230206279746573206f72206c6573730000000000006020830152604082019050919050565b6000611559601583611b84565b91507f556e6b6e6f776e2072656c6179206d616e6167657200000000000000000000006000830152602082019050919050565b6000611599602283611b84565b91507f45434453413a20696e76616c6964207369676e6174757265202773272076616c60008301527f75650000000000000000000000000000000000000000000000000000000000006020830152604082019050919050565b60006115ff600f83611b84565b91507f446966666572656e74206e6f6e636500000000000000000000000000000000006000830152602082019050919050565b600061163f601b83611b84565b91507f72656164427974657333323a206461746120746f6f2073686f727400000000006000830152602082019050919050565b600061167f601083611b84565b91507f446966666572656e74207369676e6572000000000000000000000000000000006000830152602082019050919050565b60006116bf600b83611b84565b91507f747820697320657175616c0000000000000000000000000000000000000000006000830152602082019050919050565b60006116ff602283611b84565b91507f45434453413a20696e76616c6964207369676e6174757265202776272076616c60008301527f75650000000000000000000000000000000000000000000000000000000000006020830152604082019050919050565b6000611765600d83611b84565b91507f69734c697374206661696c6564000000000000000000000000000000000000006000830152602082019050919050565b60006117a5601a83611b84565b91507f726561644279746573343a206461746120746f6f2073686f72740000000000006000830152602082019050919050565b60006117e5601083611b84565b91507f65637265636f766572206661696c6564000000000000000000000000000000006000830152602082019050919050565b61182961182482611c01565b611cb4565b82525050565b61183881611c0b565b82525050565b600061184a82846113bc565b915081905092915050565b600061186182876113bc565b915061186d8286611818565b60208201915061187d8285611396565b60148201915061188d8284611818565b60208201915081905095945050505050565b60006020820190506118b46000830184611369565b92915050565b60006040820190506118cf6000830185611387565b6118dc6020830184611378565b9392505050565b60006080820190506118f860008301876113ad565b611905602083018661182f565b61191260408301856113ad565b61191f60608301846113ad565b95945050505050565b6000602082019050818103600083015261194281846113ed565b905092915050565b6000602082019050818103600083015261196381611426565b9050919050565b6000602082019050818103600083015261198381611466565b9050919050565b600060208201905081810360008301526119a3816114a6565b9050919050565b600060208201905081810360008301526119c3816114e6565b9050919050565b600060208201905081810360008301526119e38161154c565b9050919050565b60006020820190508181036000830152611a038161158c565b9050919050565b60006020820190508181036000830152611a23816115f2565b9050919050565b60006020820190508181036000830152611a4381611632565b9050919050565b60006020820190508181036000830152611a6381611672565b9050919050565b60006020820190508181036000830152611a83816116b2565b9050919050565b60006020820190508181036000830152611aa3816116f2565b9050919050565b60006020820190508181036000830152611ac381611758565b9050919050565b60006020820190508181036000830152611ae381611798565b9050919050565b60006020820190508181036000830152611b03816117d8565b9050919050565b6000604051905081810181811067ffffffffffffffff82111715611b2d57600080fd5b8060405250919050565b600067ffffffffffffffff821115611b4e57600080fd5b601f19601f8301169050602081019050919050565b600081519050919050565b600081519050919050565b600081905092915050565b600082825260208201905092915050565b6000611ba082611be1565b9050919050565b6000611bb282611be1565b9050919050565b60008115159050919050565b6000819050919050565b6000611bda82611b95565b9050919050565b600073ffffffffffffffffffffffffffffffffffffffff82169050919050565b6000819050919050565b600060ff82169050919050565b6000611c2382611c2a565b9050919050565b6000611c3582611c3c565b9050919050565b6000611c4782611be1565b9050919050565b82818337600083830152505050565b60005b83811015611c7b578082015181840152602081019050611c60565b83811115611c8a576000848401525b50505050565b6000611c9b82611ca2565b9050919050565b6000611cad82611ccf565b9050919050565b6000819050919050565b6000601f19601f8301169050919050565b60008160601b9050919050565b611ce581611bb9565b8114611cf057600080fd5b50565b611cfc81611bcf565b8114611d0757600080fd5b5056fea2646970667358221220a780d5d2b2a3f80fbbb03867ef3af50df2ef3b2ee27da95f0b772f73b650ad6b64736f6c634300060a0033322e302e302b6f70656e67736e2e70656e616c697a65722e6970656e616c697a6572",
  "immutableReferences": {},
  "source": "// SPDX-License-Identifier:MIT\npragma solidity ^0.6.2;\npragma experimental ABIEncoderV2;\n\nimport \"@openzeppelin/contracts/cryptography/ECDSA.sol\";\n\nimport \"./utils/RLPReader.sol\";\nimport \"./utils/GsnUtils.sol\";\nimport \"./interfaces/IRelayHub.sol\";\nimport \"./interfaces/IPenalizer.sol\";\n\ncontract Penalizer is IPenalizer{\n\n    string public override versionPenalizer = \"2.0.0+opengsn.penalizer.ipenalizer\";\n\n    using ECDSA for bytes32;\n\n    function decodeTransaction(bytes memory rawTransaction) private pure returns (Transaction memory transaction) {\n        (transaction.nonce,\n        transaction.gasPrice,\n        transaction.gasLimit,\n        transaction.to,\n        transaction.value,\n        transaction.data) = RLPReader.decodeTransaction(rawTransaction);\n        return transaction;\n\n    }\n\n    modifier relayManagerOnly(IRelayHub hub) {\n        require(hub.isRelayManagerStaked(msg.sender), \"Unknown relay manager\");\n        _;\n    }\n\n    function penalizeRepeatedNonce(\n        bytes memory unsignedTx1,\n        bytes memory signature1,\n        bytes memory unsignedTx2,\n        bytes memory signature2,\n        IRelayHub hub\n    )\n    public\n    override\n    relayManagerOnly(hub)\n    {\n        // Can be called by a relay manager only.\n        // If a relay attacked the system by signing multiple transactions with the same nonce\n        // (so only one is accepted), anyone can grab both transactions from the blockchain and submit them here.\n        // Check whether unsignedTx1 != unsignedTx2, that both are signed by the same address,\n        // and that unsignedTx1.nonce == unsignedTx2.nonce.\n        // If all conditions are met, relay is considered an \"offending relay\".\n        // The offending relay will be unregistered immediately, its stake will be forfeited and given\n        // to the address who reported it (msg.sender), thus incentivizing anyone to report offending relays.\n        // If reported via a relay, the forfeited stake is split between\n        // msg.sender (the relay used for reporting) and the address that reported it.\n\n        address addr1 = keccak256(abi.encodePacked(unsignedTx1)).recover(signature1);\n        address addr2 = keccak256(abi.encodePacked(unsignedTx2)).recover(signature2);\n\n        require(addr1 == addr2, \"Different signer\");\n        require(addr1 != address(0), \"ecrecover failed\");\n\n        Transaction memory decodedTx1 = decodeTransaction(unsignedTx1);\n        Transaction memory decodedTx2 = decodeTransaction(unsignedTx2);\n\n        // checking that the same nonce is used in both transaction, with both signed by the same address\n        // and the actual data is different\n        // note: we compare the hash of the tx to save gas over iterating both byte arrays\n        require(decodedTx1.nonce == decodedTx2.nonce, \"Different nonce\");\n\n        bytes memory dataToCheck1 =\n        abi.encodePacked(decodedTx1.data, decodedTx1.gasLimit, decodedTx1.to, decodedTx1.value);\n\n        bytes memory dataToCheck2 =\n        abi.encodePacked(decodedTx2.data, decodedTx2.gasLimit, decodedTx2.to, decodedTx2.value);\n\n        require(keccak256(dataToCheck1) != keccak256(dataToCheck2), \"tx is equal\");\n\n        penalize(addr1, hub);\n    }\n\n    function penalizeIllegalTransaction(\n        bytes memory unsignedTx,\n        bytes memory signature,\n        IRelayHub hub\n    )\n    public\n    override\n    relayManagerOnly(hub)\n    {\n        Transaction memory decodedTx = decodeTransaction(unsignedTx);\n        if (decodedTx.to == address(hub)) {\n            bytes4 selector = GsnUtils.getMethodSig(decodedTx.data);\n            bool isWrongMethodCall = selector != IRelayHub.relayCall.selector;\n            bool isGasLimitWrong = GsnUtils.getParam(decodedTx.data, 4) != decodedTx.gasLimit;\n            require(\n                isWrongMethodCall || isGasLimitWrong,\n                \"Legal relay transaction\");\n        }\n        address relay = keccak256(abi.encodePacked(unsignedTx)).recover(signature);\n        require(relay != address(0), \"ecrecover failed\");\n\n        penalize(relay, hub);\n    }\n\n    function penalize(address relayWorker, IRelayHub hub) private {\n        hub.penalize(relayWorker, msg.sender);\n    }\n}\n",
  "sourcePath": "C:/Dev/repos/gsn-demo/contracts/lib/Penalizer.sol",
  "compiler": {
    "name": "solc",
    "version": "0.6.10+commit.00c0fcaf.Emscripten.clang"
  },
  "schemaVersion": "3.3.3",
  "updatedAt": "2021-02-23T12:49:21.141Z",
  "devdoc": {
    "methods": {}
  },
  "userdoc": {
    "methods": {}
  }
}