{
  "contractName": "StakeManager",
  "abi": [
    {
      "anonymous": false,
      "inputs": [
        {
          "indexed": true,
          "internalType": "address",
          "name": "relayManager",
          "type": "address"
        },
        {
          "indexed": true,
          "internalType": "address",
          "name": "relayHub",
          "type": "address"
        }
      ],
      "name": "HubAuthorized",
      "type": "event"
    },
    {
      "anonymous": false,
      "inputs": [
        {
          "indexed": true,
          "internalType": "address",
          "name": "relayManager",
          "type": "address"
        },
        {
          "indexed": true,
          "internalType": "address",
          "name": "relayHub",
          "type": "address"
        },
        {
          "indexed": false,
          "internalType": "uint256",
          "name": "removalBlock",
          "type": "uint256"
        }
      ],
      "name": "HubUnauthorized",
      "type": "event"
    },
    {
      "anonymous": false,
      "inputs": [
        {
          "indexed": true,
          "internalType": "address",
          "name": "relayManager",
          "type": "address"
        },
        {
          "indexed": true,
          "internalType": "address",
          "name": "owner",
          "type": "address"
        },
        {
          "indexed": false,
          "internalType": "uint256",
          "name": "stake",
          "type": "uint256"
        },
        {
          "indexed": false,
          "internalType": "uint256",
          "name": "unstakeDelay",
          "type": "uint256"
        }
      ],
      "name": "StakeAdded",
      "type": "event"
    },
    {
      "anonymous": false,
      "inputs": [
        {
          "indexed": true,
          "internalType": "address",
          "name": "relayManager",
          "type": "address"
        },
        {
          "indexed": true,
          "internalType": "address",
          "name": "beneficiary",
          "type": "address"
        },
        {
          "indexed": false,
          "internalType": "uint256",
          "name": "reward",
          "type": "uint256"
        }
      ],
      "name": "StakePenalized",
      "type": "event"
    },
    {
      "anonymous": false,
      "inputs": [
        {
          "indexed": true,
          "internalType": "address",
          "name": "relayManager",
          "type": "address"
        },
        {
          "indexed": true,
          "internalType": "address",
          "name": "owner",
          "type": "address"
        },
        {
          "indexed": false,
          "internalType": "uint256",
          "name": "withdrawBlock",
          "type": "uint256"
        }
      ],
      "name": "StakeUnlocked",
      "type": "event"
    },
    {
      "anonymous": false,
      "inputs": [
        {
          "indexed": true,
          "internalType": "address",
          "name": "relayManager",
          "type": "address"
        },
        {
          "indexed": true,
          "internalType": "address",
          "name": "owner",
          "type": "address"
        },
        {
          "indexed": false,
          "internalType": "uint256",
          "name": "amount",
          "type": "uint256"
        }
      ],
      "name": "StakeWithdrawn",
      "type": "event"
    },
    {
      "inputs": [
        {
          "internalType": "address",
          "name": "",
          "type": "address"
        },
        {
          "internalType": "address",
          "name": "",
          "type": "address"
        }
      ],
      "name": "authorizedHubs",
      "outputs": [
        {
          "internalType": "uint256",
          "name": "removalBlock",
          "type": "uint256"
        }
      ],
      "stateMutability": "view",
      "type": "function"
    },
    {
      "inputs": [
        {
          "internalType": "address",
          "name": "",
          "type": "address"
        }
      ],
      "name": "stakes",
      "outputs": [
        {
          "internalType": "uint256",
          "name": "stake",
          "type": "uint256"
        },
        {
          "internalType": "uint256",
          "name": "unstakeDelay",
          "type": "uint256"
        },
        {
          "internalType": "uint256",
          "name": "withdrawBlock",
          "type": "uint256"
        },
        {
          "internalType": "address payable",
          "name": "owner",
          "type": "address"
        }
      ],
      "stateMutability": "view",
      "type": "function"
    },
    {
      "inputs": [],
      "name": "versionSM",
      "outputs": [
        {
          "internalType": "string",
          "name": "",
          "type": "string"
        }
      ],
      "stateMutability": "view",
      "type": "function"
    },
    {
      "inputs": [
        {
          "internalType": "address",
          "name": "relayManager",
          "type": "address"
        }
      ],
      "name": "getStakeInfo",
      "outputs": [
        {
          "components": [
            {
              "internalType": "uint256",
              "name": "stake",
              "type": "uint256"
            },
            {
              "internalType": "uint256",
              "name": "unstakeDelay",
              "type": "uint256"
            },
            {
              "internalType": "uint256",
              "name": "withdrawBlock",
              "type": "uint256"
            },
            {
              "internalType": "address payable",
              "name": "owner",
              "type": "address"
            }
          ],
          "internalType": "struct IStakeManager.StakeInfo",
          "name": "stakeInfo",
          "type": "tuple"
        }
      ],
      "stateMutability": "view",
      "type": "function"
    },
    {
      "inputs": [
        {
          "internalType": "address",
          "name": "relayManager",
          "type": "address"
        },
        {
          "internalType": "uint256",
          "name": "unstakeDelay",
          "type": "uint256"
        }
      ],
      "name": "stakeForAddress",
      "outputs": [],
      "stateMutability": "payable",
      "type": "function"
    },
    {
      "inputs": [
        {
          "internalType": "address",
          "name": "relayManager",
          "type": "address"
        }
      ],
      "name": "unlockStake",
      "outputs": [],
      "stateMutability": "nonpayable",
      "type": "function"
    },
    {
      "inputs": [
        {
          "internalType": "address",
          "name": "relayManager",
          "type": "address"
        }
      ],
      "name": "withdrawStake",
      "outputs": [],
      "stateMutability": "nonpayable",
      "type": "function"
    },
    {
      "inputs": [
        {
          "internalType": "address",
          "name": "relayManager",
          "type": "address"
        },
        {
          "internalType": "address",
          "name": "relayHub",
          "type": "address"
        }
      ],
      "name": "authorizeHubByOwner",
      "outputs": [],
      "stateMutability": "nonpayable",
      "type": "function"
    },
    {
      "inputs": [
        {
          "internalType": "address",
          "name": "relayHub",
          "type": "address"
        }
      ],
      "name": "authorizeHubByManager",
      "outputs": [],
      "stateMutability": "nonpayable",
      "type": "function"
    },
    {
      "inputs": [
        {
          "internalType": "address",
          "name": "relayManager",
          "type": "address"
        },
        {
          "internalType": "address",
          "name": "relayHub",
          "type": "address"
        }
      ],
      "name": "unauthorizeHubByOwner",
      "outputs": [],
      "stateMutability": "nonpayable",
      "type": "function"
    },
    {
      "inputs": [
        {
          "internalType": "address",
          "name": "relayHub",
          "type": "address"
        }
      ],
      "name": "unauthorizeHubByManager",
      "outputs": [],
      "stateMutability": "nonpayable",
      "type": "function"
    },
    {
      "inputs": [
        {
          "internalType": "address",
          "name": "relayManager",
          "type": "address"
        },
        {
          "internalType": "address",
          "name": "relayHub",
          "type": "address"
        },
        {
          "internalType": "uint256",
          "name": "minAmount",
          "type": "uint256"
        },
        {
          "internalType": "uint256",
          "name": "minUnstakeDelay",
          "type": "uint256"
        }
      ],
      "name": "isRelayManagerStaked",
      "outputs": [
        {
          "internalType": "bool",
          "name": "",
          "type": "bool"
        }
      ],
      "stateMutability": "view",
      "type": "function"
    },
    {
      "inputs": [
        {
          "internalType": "address",
          "name": "relayManager",
          "type": "address"
        },
        {
          "internalType": "address payable",
          "name": "beneficiary",
          "type": "address"
        },
        {
          "internalType": "uint256",
          "name": "amount",
          "type": "uint256"
        }
      ],
      "name": "penalizeRelayManager",
      "outputs": [],
      "stateMutability": "nonpayable",
      "type": "function"
    }
  ],
  "bytecode": "0x6080604052604051806060016040528060288152602001620025cd6028913960009080519060200190620000359291906200004a565b503480156200004357600080fd5b50620000f9565b828054600181600116156101000203166002900490600052602060002090601f016020900481019282601f106200008d57805160ff1916838001178555620000be565b82800160010185558215620000be579182015b82811115620000bd578251825591602001919060010190620000a0565b5b509050620000cd9190620000d1565b5090565b620000f691905b80821115620000f2576000816000905550600101620000d8565b5090565b90565b6124c480620001096000396000f3fe6080604052600436106100c25760003560e01c80637835d2961161007f578063c345315311610059578063c34531531461026c578063d48a9d43146102a9578063f48f8ac7146102d2578063f9bce311146102fb576100c2565b80637835d296146101dd5780637aeb642a14610206578063c23a5cea14610243576100c2565b806309a08af4146100c757806316934fc4146100f057806347116c6e146101305780634a1ce5991461015b5780635d2fb768146101845780636de8dd41146101a0575b600080fd5b3480156100d357600080fd5b506100ee60048036038101906100e99190611b81565b610324565b005b3480156100fc57600080fd5b5061011760048036038101906101129190611b1c565b61065e565b604051610127949392919061234a565b60405180910390f35b34801561013c57600080fd5b506101456106ae565b6040516101529190612109565b60405180910390f35b34801561016757600080fd5b50610182600480360381019061017d9190611b1c565b61074c565b005b61019e60048036038101906101999190611c33565b6108f4565b005b3480156101ac57600080fd5b506101c760048036038101906101c29190611bd0565b610e8b565b6040516101d491906120ee565b60405180910390f35b3480156101e957600080fd5b5061020460048036038101906101ff9190611b45565b610fc3565b005b34801561021257600080fd5b5061022d60048036038101906102289190611b45565b6110a9565b60405161023a9190612306565b60405180910390f35b34801561024f57600080fd5b5061026a60048036038101906102659190611b1c565b6110d4565b005b34801561027857600080fd5b50610293600480360381019061028e9190611b1c565b611372565b6040516102a091906122eb565b60405180910390f35b3480156102b557600080fd5b506102d060048036038101906102cb9190611b1c565b61143f565b005b3480156102de57600080fd5b506102f960048036038101906102f49190611b45565b611524565b005b34801561030757600080fd5b50610322600480360381019061031d9190611b1c565b61160a565b005b6000600260008573ffffffffffffffffffffffffffffffffffffffff1673ffffffffffffffffffffffffffffffffffffffff16815260200190815260200160002060003373ffffffffffffffffffffffffffffffffffffffff1673ffffffffffffffffffffffffffffffffffffffff16815260200190815260200160002060000154905060008114156103ec576040517f08c379a00000000000000000000000000000000000000000000000000000000081526004016103e39061222b565b60405180910390fd5b43811161042e576040517f08c379a0000000000000000000000000000000000000000000000000000000008152600401610425906121ab565b60405180910390fd5b81600160008673ffffffffffffffffffffffffffffffffffffffff1673ffffffffffffffffffffffffffffffffffffffff1681526020019081526020016000206000015410156104b3576040517f08c379a00000000000000000000000000000000000000000000000000000000081526004016104aa9061226b565b60405180910390fd5b6104ff600160008673ffffffffffffffffffffffffffffffffffffffff1673ffffffffffffffffffffffffffffffffffffffff16815260200190815260200160002060000154836116ef565b600160008673ffffffffffffffffffffffffffffffffffffffff1673ffffffffffffffffffffffffffffffffffffffff16815260200190815260200160002060000181905550600061055283600261173f565b9050600061056084836116ef565b9050600073ffffffffffffffffffffffffffffffffffffffff166108fc839081150290604051600060405180830381858888f193505050501580156105a9573d6000803e3d6000fd5b508473ffffffffffffffffffffffffffffffffffffffff166108fc829081150290604051600060405180830381858888f193505050501580156105f0573d6000803e3d6000fd5b508473ffffffffffffffffffffffffffffffffffffffff168673ffffffffffffffffffffffffffffffffffffffff167f2f2ba0bf4c9bedc2210a4da5b5811c2a4fd28e62c51bb90c3ea6fdce00808eb08360405161064e9190612306565b60405180910390a3505050505050565b60016020528060005260406000206000915090508060000154908060010154908060020154908060030160009054906101000a900473ffffffffffffffffffffffffffffffffffffffff16905084565b60008054600181600116156101000203166002900480601f0160208091040260200160405190810160405280929190818152602001828054600181600116156101000203166002900480156107445780601f1061071957610100808354040283529160200191610744565b820191906000526020600020905b81548152906001019060200180831161072757829003601f168201915b505050505081565b6000600160008373ffffffffffffffffffffffffffffffffffffffff1673ffffffffffffffffffffffffffffffffffffffff16815260200190815260200160002090503373ffffffffffffffffffffffffffffffffffffffff168160030160009054906101000a900473ffffffffffffffffffffffffffffffffffffffff1673ffffffffffffffffffffffffffffffffffffffff1614610821576040517f08c379a0000000000000000000000000000000000000000000000000000000008152600401610818906122cb565b60405180910390fd5b6000816002015414610868576040517f08c379a000000000000000000000000000000000000000000000000000000000815260040161085f9061214b565b60405180910390fd5b61087f81600101544361179590919063ffffffff16565b81600201819055503373ffffffffffffffffffffffffffffffffffffffff168273ffffffffffffffffffffffffffffffffffffffff167f9ffc6168de1eb7f1d16200f614753cd7edce5a2186aab1c612199dd7316cd7c483600201546040516108e89190612306565b60405180910390a35050565b600073ffffffffffffffffffffffffffffffffffffffff16600160008473ffffffffffffffffffffffffffffffffffffffff1673ffffffffffffffffffffffffffffffffffffffff16815260200190815260200160002060030160009054906101000a900473ffffffffffffffffffffffffffffffffffffffff1673ffffffffffffffffffffffffffffffffffffffff161480610a1e57503373ffffffffffffffffffffffffffffffffffffffff16600160008473ffffffffffffffffffffffffffffffffffffffff1673ffffffffffffffffffffffffffffffffffffffff16815260200190815260200160002060030160009054906101000a900473ffffffffffffffffffffffffffffffffffffffff1673ffffffffffffffffffffffffffffffffffffffff16145b610a5d576040517f08c379a0000000000000000000000000000000000000000000000000000000008152600401610a54906122cb565b60405180910390fd5b600160008373ffffffffffffffffffffffffffffffffffffffff1673ffffffffffffffffffffffffffffffffffffffff16815260200190815260200160002060010154811015610ae2576040517f08c379a0000000000000000000000000000000000000000000000000000000008152600401610ad9906121eb565b60405180910390fd5b8173ffffffffffffffffffffffffffffffffffffffff163373ffffffffffffffffffffffffffffffffffffffff161415610b51576040517f08c379a0000000000000000000000000000000000000000000000000000000008152600401610b48906122ab565b60405180910390fd5b600073ffffffffffffffffffffffffffffffffffffffff16600160003373ffffffffffffffffffffffffffffffffffffffff1673ffffffffffffffffffffffffffffffffffffffff16815260200190815260200160002060030160009054906101000a900473ffffffffffffffffffffffffffffffffffffffff1673ffffffffffffffffffffffffffffffffffffffff1614610c22576040517f08c379a0000000000000000000000000000000000000000000000000000000008152600401610c199061220b565b60405180910390fd5b33600160008473ffffffffffffffffffffffffffffffffffffffff1673ffffffffffffffffffffffffffffffffffffffff16815260200190815260200160002060030160006101000a81548173ffffffffffffffffffffffffffffffffffffffff021916908373ffffffffffffffffffffffffffffffffffffffff16021790555034600160008473ffffffffffffffffffffffffffffffffffffffff1673ffffffffffffffffffffffffffffffffffffffff1681526020019081526020016000206000016000828254019250508190555080600160008473ffffffffffffffffffffffffffffffffffffffff1673ffffffffffffffffffffffffffffffffffffffff16815260200190815260200160002060010181905550600160008373ffffffffffffffffffffffffffffffffffffffff1673ffffffffffffffffffffffffffffffffffffffff16815260200190815260200160002060030160009054906101000a900473ffffffffffffffffffffffffffffffffffffffff1673ffffffffffffffffffffffffffffffffffffffff168273ffffffffffffffffffffffffffffffffffffffff167fef7c8dfef14cbefdf829b8f066b068b677992411137321d64b3ed4538c2b3637600160008673ffffffffffffffffffffffffffffffffffffffff1673ffffffffffffffffffffffffffffffffffffffff16815260200190815260200160002060000154600160008773ffffffffffffffffffffffffffffffffffffffff1673ffffffffffffffffffffffffffffffffffffffff16815260200190815260200160002060010154604051610e7f929190612321565b60405180910390a35050565b600080600160008773ffffffffffffffffffffffffffffffffffffffff1673ffffffffffffffffffffffffffffffffffffffff1681526020019081526020016000209050600084826000015410159050600084836001015410159050600080846002015414905060007fffffffffffffffffffffffffffffffffffffffffffffffffffffffffffffffff600260008c73ffffffffffffffffffffffffffffffffffffffff1673ffffffffffffffffffffffffffffffffffffffff16815260200190815260200160002060008b73ffffffffffffffffffffffffffffffffffffffff1673ffffffffffffffffffffffffffffffffffffffff16815260200190815260200160002060000154149050838015610fa25750825b8015610fab5750815b8015610fb45750805b95505050505050949350505050565b816000600160008373ffffffffffffffffffffffffffffffffffffffff1673ffffffffffffffffffffffffffffffffffffffff16815260200190815260200160002090503373ffffffffffffffffffffffffffffffffffffffff168160030160009054906101000a900473ffffffffffffffffffffffffffffffffffffffff1673ffffffffffffffffffffffffffffffffffffffff1614611099576040517f08c379a0000000000000000000000000000000000000000000000000000000008152600401611090906122cb565b60405180910390fd5b6110a384846117ea565b50505050565b6002602052816000526040600020602052806000526040600020600091509150508060000154905081565b6000600160008373ffffffffffffffffffffffffffffffffffffffff1673ffffffffffffffffffffffffffffffffffffffff16815260200190815260200160002090503373ffffffffffffffffffffffffffffffffffffffff168160030160009054906101000a900473ffffffffffffffffffffffffffffffffffffffff1673ffffffffffffffffffffffffffffffffffffffff16146111a9576040517f08c379a00000000000000000000000000000000000000000000000000000000081526004016111a0906122cb565b60405180910390fd5b60008160020154116111f0576040517f08c379a00000000000000000000000000000000000000000000000000000000081526004016111e79061224b565b60405180910390fd5b4381600201541115611237576040517f08c379a000000000000000000000000000000000000000000000000000000000815260040161122e9061216b565b60405180910390fd5b600081600001549050600160008473ffffffffffffffffffffffffffffffffffffffff1673ffffffffffffffffffffffffffffffffffffffff168152602001908152602001600020600080820160009055600182016000905560028201600090556003820160006101000a81549073ffffffffffffffffffffffffffffffffffffffff021916905550503373ffffffffffffffffffffffffffffffffffffffff166108fc829081150290604051600060405180830381858888f19350505050158015611307573d6000803e3d6000fd5b503373ffffffffffffffffffffffffffffffffffffffff168373ffffffffffffffffffffffffffffffffffffffff167fb7c918e0e249f999e965cafeb6c664271b3f4317d296461500e71da39f0cbda3836040516113659190612306565b60405180910390a3505050565b61137a611a9f565b600160008373ffffffffffffffffffffffffffffffffffffffff1673ffffffffffffffffffffffffffffffffffffffff1681526020019081526020016000206040518060800160405290816000820154815260200160018201548152602001600282015481526020016003820160009054906101000a900473ffffffffffffffffffffffffffffffffffffffff1673ffffffffffffffffffffffffffffffffffffffff1673ffffffffffffffffffffffffffffffffffffffff16815250509050919050565b6000600160003373ffffffffffffffffffffffffffffffffffffffff1673ffffffffffffffffffffffffffffffffffffffff1681526020019081526020016000209050600073ffffffffffffffffffffffffffffffffffffffff168160030160009054906101000a900473ffffffffffffffffffffffffffffffffffffffff1673ffffffffffffffffffffffffffffffffffffffff161415611516576040517f08c379a000000000000000000000000000000000000000000000000000000000815260040161150d9061228b565b60405180910390fd5b61152033836117ea565b5050565b816000600160008373ffffffffffffffffffffffffffffffffffffffff1673ffffffffffffffffffffffffffffffffffffffff16815260200190815260200160002090503373ffffffffffffffffffffffffffffffffffffffff168160030160009054906101000a900473ffffffffffffffffffffffffffffffffffffffff1673ffffffffffffffffffffffffffffffffffffffff16146115fa576040517f08c379a00000000000000000000000000000000000000000000000000000000081526004016115f1906122cb565b60405180910390fd5b61160484846118ec565b50505050565b6000600160003373ffffffffffffffffffffffffffffffffffffffff1673ffffffffffffffffffffffffffffffffffffffff1681526020019081526020016000209050600073ffffffffffffffffffffffffffffffffffffffff168160030160009054906101000a900473ffffffffffffffffffffffffffffffffffffffff1673ffffffffffffffffffffffffffffffffffffffff1614156116e1576040517f08c379a00000000000000000000000000000000000000000000000000000000081526004016116d89061228b565b60405180910390fd5b6116eb33836118ec565b5050565b600082821115611734576040517f08c379a000000000000000000000000000000000000000000000000000000000815260040161172b9061218b565b60405180910390fd5b818303905092915050565b6000808211611783576040517f08c379a000000000000000000000000000000000000000000000000000000000815260040161177a906121cb565b60405180910390fd5b81838161178c57fe5b04905092915050565b6000808284019050838110156117e0576040517f08c379a00000000000000000000000000000000000000000000000000000000081526004016117d79061212b565b60405180910390fd5b8091505092915050565b7fffffffffffffffffffffffffffffffffffffffffffffffffffffffffffffffff600260008473ffffffffffffffffffffffffffffffffffffffff1673ffffffffffffffffffffffffffffffffffffffff16815260200190815260200160002060008373ffffffffffffffffffffffffffffffffffffffff1673ffffffffffffffffffffffffffffffffffffffff168152602001908152602001600020600001819055508073ffffffffffffffffffffffffffffffffffffffff168273ffffffffffffffffffffffffffffffffffffffff167fe292c4f6e9f34c975f4958cd5650a8111352feae914a67b0640795710542102160405160405180910390a35050565b6000600260008473ffffffffffffffffffffffffffffffffffffffff1673ffffffffffffffffffffffffffffffffffffffff16815260200190815260200160002060008373ffffffffffffffffffffffffffffffffffffffff1673ffffffffffffffffffffffffffffffffffffffff16815260200190815260200160002090507fffffffffffffffffffffffffffffffffffffffffffffffffffffffffffffffff8160000154146119d2576040517f08c379a00000000000000000000000000000000000000000000000000000000081526004016119c99061222b565b60405180910390fd5b6000611a29600160008673ffffffffffffffffffffffffffffffffffffffff1673ffffffffffffffffffffffffffffffffffffffff168152602001908152602001600020600101544361179590919063ffffffff16565b90508082600001819055508273ffffffffffffffffffffffffffffffffffffffff168473ffffffffffffffffffffffffffffffffffffffff167f8d941c9b73ba7e59671a59eed85054004624684182b0e4bdb56c35937bac65a683604051611a919190612306565b60405180910390a350505050565b6040518060800160405280600081526020016000815260200160008152602001600073ffffffffffffffffffffffffffffffffffffffff1681525090565b600081359050611aec81612449565b92915050565b600081359050611b0181612460565b92915050565b600081359050611b1681612477565b92915050565b600060208284031215611b2e57600080fd5b6000611b3c84828501611add565b91505092915050565b60008060408385031215611b5857600080fd5b6000611b6685828601611add565b9250506020611b7785828601611add565b9150509250929050565b600080600060608486031215611b9657600080fd5b6000611ba486828701611add565b9350506020611bb586828701611af2565b9250506040611bc686828701611b07565b9150509250925092565b60008060008060808587031215611be657600080fd5b6000611bf487828801611add565b9450506020611c0587828801611add565b9350506040611c1687828801611b07565b9250506060611c2787828801611b07565b91505092959194509250565b60008060408385031215611c4657600080fd5b6000611c5485828601611add565b9250506020611c6585828601611b07565b9150509250929050565b611c78816123bd565b82525050565b611c87816123bd565b82525050565b611c96816123cf565b82525050565b6000611ca78261238f565b611cb1818561239a565b9350611cc1818560208601612405565b611cca81612438565b840191505092915050565b6000611ce2601b8361239a565b91507f536166654d6174683a206164646974696f6e206f766572666c6f7700000000006000830152602082019050919050565b6000611d22600f8361239a565b91507f616c72656164792070656e64696e6700000000000000000000000000000000006000830152602082019050919050565b6000611d6260158361239a565b91507f5769746864726177616c206973206e6f742064756500000000000000000000006000830152602082019050919050565b6000611da2601e8361239a565b91507f536166654d6174683a207375627472616374696f6e206f766572666c6f7700006000830152602082019050919050565b6000611de260198361239a565b91507f68756220617574686f72697a6174696f6e2065787069726564000000000000006000830152602082019050919050565b6000611e22601a8361239a565b91507f536166654d6174683a206469766973696f6e206279207a65726f0000000000006000830152602082019050919050565b6000611e6260208361239a565b91507f756e7374616b6544656c61792063616e6e6f74206265206465637265617365646000830152602082019050919050565b6000611ea2601f8361239a565b91507f73656e64657220697320612072656c61794d616e6167657220697473656c66006000830152602082019050919050565b6000611ee260128361239a565b91507f687562206e6f7420617574686f72697a656400000000000000000000000000006000830152602082019050919050565b6000611f22601b8361239a565b91507f5769746864726177616c206973206e6f74207363686564756c656400000000006000830152602082019050919050565b6000611f6260158361239a565b91507f70656e616c74792065786365656473207374616b6500000000000000000000006000830152602082019050919050565b6000611fa2600b8361239a565b91507f6e6f74206d616e616765720000000000000000000000000000000000000000006000830152602082019050919050565b6000611fe260248361239a565b91507f72656c61794d616e616765722063616e6e6f74207374616b6520666f7220697460008301527f73656c66000000000000000000000000000000000000000000000000000000006020830152604082019050919050565b600061204860098361239a565b91507f6e6f74206f776e657200000000000000000000000000000000000000000000006000830152602082019050919050565b60808201600082015161209160008501826120d0565b5060208201516120a460208501826120d0565b5060408201516120b760408501826120d0565b5060608201516120ca6060850182611c6f565b50505050565b6120d9816123fb565b82525050565b6120e8816123fb565b82525050565b60006020820190506121036000830184611c8d565b92915050565b600060208201905081810360008301526121238184611c9c565b905092915050565b6000602082019050818103600083015261214481611cd5565b9050919050565b6000602082019050818103600083015261216481611d15565b9050919050565b6000602082019050818103600083015261218481611d55565b9050919050565b600060208201905081810360008301526121a481611d95565b9050919050565b600060208201905081810360008301526121c481611dd5565b9050919050565b600060208201905081810360008301526121e481611e15565b9050919050565b6000602082019050818103600083015261220481611e55565b9050919050565b6000602082019050818103600083015261222481611e95565b9050919050565b6000602082019050818103600083015261224481611ed5565b9050919050565b6000602082019050818103600083015261226481611f15565b9050919050565b6000602082019050818103600083015261228481611f55565b9050919050565b600060208201905081810360008301526122a481611f95565b9050919050565b600060208201905081810360008301526122c481611fd5565b9050919050565b600060208201905081810360008301526122e48161203b565b9050919050565b6000608082019050612300600083018461207b565b92915050565b600060208201905061231b60008301846120df565b92915050565b600060408201905061233660008301856120df565b61234360208301846120df565b9392505050565b600060808201905061235f60008301876120df565b61236c60208301866120df565b61237960408301856120df565b6123866060830184611c7e565b95945050505050565b600081519050919050565b600082825260208201905092915050565b60006123b6826123db565b9050919050565b60006123c8826123db565b9050919050565b60008115159050919050565b600073ffffffffffffffffffffffffffffffffffffffff82169050919050565b6000819050919050565b60005b83811015612423578082015181840152602081019050612408565b83811115612432576000848401525b50505050565b6000601f19601f8301169050919050565b612452816123ab565b811461245d57600080fd5b50565b612469816123bd565b811461247457600080fd5b50565b612480816123fb565b811461248b57600080fd5b5056fea264697066735822122008f4581d79450ab6f9de9ac83e10fc4e3d7899597b73b50b4f7723f7dcbee16f64736f6c634300060a0033322e302e302b6f70656e67736e2e7374616b656d616e616765722e697374616b656d616e61676572",
  "immutableReferences": {},
  "source": "// SPDX-License-Identifier:MIT\npragma solidity ^0.6.2;\npragma experimental ABIEncoderV2;\n\nimport \"@openzeppelin/contracts/math/SafeMath.sol\";\n\nimport \"./interfaces/IStakeManager.sol\";\n\ncontract StakeManager is IStakeManager {\n    using SafeMath for uint256;\n\n    string public override versionSM = \"2.0.0+opengsn.stakemanager.istakemanager\";\n\n    /// maps relay managers to their stakes\n    mapping(address => StakeInfo) public stakes;\n    function getStakeInfo(address relayManager) external override view returns (StakeInfo memory stakeInfo) {\n        return stakes[relayManager];\n    }\n\n    /// maps relay managers to a map of addressed of their authorized hubs to the information on that hub\n    mapping(address => mapping(address => RelayHubInfo)) public authorizedHubs;\n\n    /// Put a stake for a relayManager and set its unstake delay.\n    /// If the entry does not exist, it is created, and the caller of this function becomes its owner.\n    /// If the entry already exists, only the owner can call this function.\n    /// @param relayManager - address that represents a stake entry and controls relay registrations on relay hubs\n    /// @param unstakeDelay - number of blocks to elapse before the owner can retrieve the stake after calling 'unlock'\n    function stakeForAddress(address relayManager, uint256 unstakeDelay) external override payable {\n        require(stakes[relayManager].owner == address(0) || stakes[relayManager].owner == msg.sender, \"not owner\");\n        require(unstakeDelay >= stakes[relayManager].unstakeDelay, \"unstakeDelay cannot be decreased\");\n        require(msg.sender != relayManager, \"relayManager cannot stake for itself\");\n        require(stakes[msg.sender].owner == address(0), \"sender is a relayManager itself\");\n        stakes[relayManager].owner = msg.sender;\n        stakes[relayManager].stake += msg.value;\n        stakes[relayManager].unstakeDelay = unstakeDelay;\n        emit StakeAdded(relayManager, stakes[relayManager].owner, stakes[relayManager].stake, stakes[relayManager].unstakeDelay);\n    }\n\n    function unlockStake(address relayManager) external override {\n        StakeInfo storage info = stakes[relayManager];\n        require(info.owner == msg.sender, \"not owner\");\n        require(info.withdrawBlock == 0, \"already pending\");\n        info.withdrawBlock = block.number.add(info.unstakeDelay);\n        emit StakeUnlocked(relayManager, msg.sender, info.withdrawBlock);\n    }\n\n    function withdrawStake(address relayManager) external override {\n        StakeInfo storage info = stakes[relayManager];\n        require(info.owner == msg.sender, \"not owner\");\n        require(info.withdrawBlock > 0, \"Withdrawal is not scheduled\");\n        require(info.withdrawBlock <= block.number, \"Withdrawal is not due\");\n        uint256 amount = info.stake;\n        delete stakes[relayManager];\n        msg.sender.transfer(amount);\n        emit StakeWithdrawn(relayManager, msg.sender, amount);\n    }\n\n    modifier ownerOnly (address relayManager) {\n        StakeInfo storage info = stakes[relayManager];\n        require(info.owner == msg.sender, \"not owner\");\n        _;\n    }\n\n    modifier managerOnly () {\n        StakeInfo storage info = stakes[msg.sender];\n        require(info.owner != address(0), \"not manager\");\n        _;\n    }\n\n    function authorizeHubByOwner(address relayManager, address relayHub) external ownerOnly(relayManager) override {\n        _authorizeHub(relayManager, relayHub);\n    }\n\n    function authorizeHubByManager(address relayHub) external managerOnly override {\n        _authorizeHub(msg.sender, relayHub);\n    }\n\n    function _authorizeHub(address relayManager, address relayHub) internal {\n        authorizedHubs[relayManager][relayHub].removalBlock = uint(-1);\n        emit HubAuthorized(relayManager, relayHub);\n    }\n\n    function unauthorizeHubByOwner(address relayManager, address relayHub) external override ownerOnly(relayManager) {\n        _unauthorizeHub(relayManager, relayHub);\n    }\n\n    function unauthorizeHubByManager(address relayHub) external override managerOnly {\n        _unauthorizeHub(msg.sender, relayHub);\n    }\n\n    function _unauthorizeHub(address relayManager, address relayHub) internal {\n        RelayHubInfo storage hubInfo = authorizedHubs[relayManager][relayHub];\n        require(hubInfo.removalBlock == uint(-1), \"hub not authorized\");\n        uint256 removalBlock = block.number.add(stakes[relayManager].unstakeDelay);\n        hubInfo.removalBlock = removalBlock;\n        emit HubUnauthorized(relayManager, relayHub, removalBlock);\n    }\n\n    function isRelayManagerStaked(address relayManager, address relayHub, uint256 minAmount, uint256 minUnstakeDelay)\n    external\n    override\n    view\n    returns (bool) {\n        StakeInfo storage info = stakes[relayManager];\n        bool isAmountSufficient = info.stake >= minAmount;\n        bool isDelaySufficient = info.unstakeDelay >= minUnstakeDelay;\n        bool isStakeLocked = info.withdrawBlock == 0;\n        bool isHubAuthorized = authorizedHubs[relayManager][relayHub].removalBlock == uint(-1);\n        return\n        isAmountSufficient &&\n        isDelaySufficient &&\n        isStakeLocked &&\n        isHubAuthorized;\n    }\n\n    /// Slash the stake of the relay relayManager. In order to prevent stake kidnapping, burns half of stake on the way.\n    /// @param relayManager - entry to penalize\n    /// @param beneficiary - address that receives half of the penalty amount\n    /// @param amount - amount to withdraw from stake\n    function penalizeRelayManager(address relayManager, address payable beneficiary, uint256 amount) external override {\n        uint256 removalBlock =  authorizedHubs[relayManager][msg.sender].removalBlock;\n        require(removalBlock != 0, \"hub not authorized\");\n        require(removalBlock > block.number, \"hub authorization expired\");\n\n        // Half of the stake will be burned (sent to address 0)\n        require(stakes[relayManager].stake >= amount, \"penalty exceeds stake\");\n        stakes[relayManager].stake = SafeMath.sub(stakes[relayManager].stake, amount);\n\n        uint256 toBurn = SafeMath.div(amount, 2);\n        uint256 reward = SafeMath.sub(amount, toBurn);\n\n        // Ether is burned and transferred\n        address(0).transfer(toBurn);\n        beneficiary.transfer(reward);\n        emit StakePenalized(relayManager, beneficiary, reward);\n    }\n}\n",
  "sourcePath": "C:/Dev/repos/gsn-demo/contracts/lib/StakeManager.sol",
  "compiler": {
    "name": "solc",
    "version": "0.6.10+commit.00c0fcaf.Emscripten.clang"
  },
  "schemaVersion": "3.3.3",
  "updatedAt": "2021-02-23T12:49:21.172Z",
  "devdoc": {
    "methods": {
      "penalizeRelayManager(address,address,uint256)": {
        "params": {
          "amount": "- amount to withdraw from stake",
          "beneficiary": "- address that receives half of the penalty amount",
          "relayManager": "- entry to penalize"
        }
      },
      "stakeForAddress(address,uint256)": {
        "params": {
          "relayManager": "- address that represents a stake entry and controls relay registrations on relay hubs",
          "unstakeDelay": "- number of blocks to elapse before the owner can retrieve the stake after calling 'unlock'"
        }
      }
    }
  },
  "userdoc": {
    "methods": {
      "authorizedHubs(address,address)": {
        "notice": "maps relay managers to a map of addressed of their authorized hubs to the information on that hub"
      },
      "penalizeRelayManager(address,address,uint256)": {
        "notice": "Slash the stake of the relay relayManager. In order to prevent stake kidnapping, burns half of stake on the way."
      },
      "stakeForAddress(address,uint256)": {
        "notice": "Put a stake for a relayManager and set its unstake delay. If the entry does not exist, it is created, and the caller of this function becomes its owner. If the entry already exists, only the owner can call this function."
      },
      "stakes(address)": {
        "notice": "maps relay managers to their stakes"
      }
    }
  }
}