{
  "contractName": "TestForwarderTarget",
  "abi": [
    {
      "inputs": [
        {
          "internalType": "address",
          "name": "forwarder",
          "type": "address"
        }
      ],
      "stateMutability": "nonpayable",
      "type": "constructor"
    },
    {
      "anonymous": false,
      "inputs": [
        {
          "indexed": false,
          "internalType": "string",
          "name": "message",
          "type": "string"
        }
      ],
      "name": "Reverting",
      "type": "event"
    },
    {
      "anonymous": false,
      "inputs": [
        {
          "indexed": false,
          "internalType": "string",
          "name": "message",
          "type": "string"
        },
        {
          "indexed": false,
          "internalType": "address",
          "name": "realSender",
          "type": "address"
        },
        {
          "indexed": false,
          "internalType": "address",
          "name": "msgSender",
          "type": "address"
        },
        {
          "indexed": false,
          "internalType": "address",
          "name": "origin",
          "type": "address"
        }
      ],
      "name": "TestForwarderMessage",
      "type": "event"
    },
    {
      "inputs": [
        {
          "internalType": "address",
          "name": "forwarder",
          "type": "address"
        }
      ],
      "name": "isTrustedForwarder",
      "outputs": [
        {
          "internalType": "bool",
          "name": "",
          "type": "bool"
        }
      ],
      "stateMutability": "view",
      "type": "function"
    },
    {
      "inputs": [],
      "name": "trustedForwarder",
      "outputs": [
        {
          "internalType": "address",
          "name": "",
          "type": "address"
        }
      ],
      "stateMutability": "view",
      "type": "function"
    },
    {
      "inputs": [],
      "name": "versionRecipient",
      "outputs": [
        {
          "internalType": "string",
          "name": "",
          "type": "string"
        }
      ],
      "stateMutability": "view",
      "type": "function"
    },
    {
      "stateMutability": "payable",
      "type": "receive"
    },
    {
      "inputs": [
        {
          "internalType": "string",
          "name": "message",
          "type": "string"
        }
      ],
      "name": "emitMessage",
      "outputs": [],
      "stateMutability": "nonpayable",
      "type": "function"
    },
    {
      "inputs": [],
      "name": "publicMsgSender",
      "outputs": [
        {
          "internalType": "address",
          "name": "",
          "type": "address"
        }
      ],
      "stateMutability": "view",
      "type": "function"
    },
    {
      "inputs": [],
      "name": "publicMsgData",
      "outputs": [
        {
          "internalType": "bytes",
          "name": "",
          "type": "bytes"
        }
      ],
      "stateMutability": "view",
      "type": "function"
    },
    {
      "inputs": [
        {
          "internalType": "uint256",
          "name": "value",
          "type": "uint256"
        }
      ],
      "name": "mustReceiveEth",
      "outputs": [],
      "stateMutability": "payable",
      "type": "function"
    },
    {
      "inputs": [],
      "name": "testRevert",
      "outputs": [],
      "stateMutability": "nonpayable",
      "type": "function"
    }
  ],
  "bytecode": "0x60806040526040518060400160405280601c81526020017f322e302e302b6f70656e67736e2e746573742e726563697069656e74000000008152506001908051906020019061004f9291906100d6565b5034801561005c57600080fd5b50604051610a57380380610a578339818101604052602081101561007f57600080fd5b8101908080519060200190929190505050806000806101000a81548173ffffffffffffffffffffffffffffffffffffffff021916908373ffffffffffffffffffffffffffffffffffffffff1602179055505061017b565b828054600181600116156101000203166002900490600052602060002090601f016020900481019282601f1061011757805160ff1916838001178555610145565b82800160010185558215610145579182015b82811115610144578251825591602001919060010190610129565b5b5090506101529190610156565b5090565b61017891905b8082111561017457600081600090555060010161015c565b5090565b90565b6108cd8061018a6000396000f3fe60806040526004361061007f5760003560e01c80637da0a8771161004e5780637da0a8771461027a578063a26388bb146102d1578063b6ffacf7146102e8578063bf9587261461033f57610086565b80632ac0df261461008b578063486ff0cd14610153578063572b6c05146101e35780637a27578d1461024c57610086565b3661008657005b600080fd5b34801561009757600080fd5b50610151600480360360208110156100ae57600080fd5b81019080803590602001906401000000008111156100cb57600080fd5b8201836020820111156100dd57600080fd5b803590602001918460018302840111640100000000831117156100ff57600080fd5b91908080601f016020809104026020016040519081016040528093929190818152602001838380828437600081840152601f19601f8201169050808301925050505050505091929192905050506103cf565b005b34801561015f57600080fd5b50610168610511565b6040518080602001828103825283818151815260200191508051906020019080838360005b838110156101a857808201518184015260208101905061018d565b50505050905090810190601f1680156101d55780820380516001836020036101000a031916815260200191505b509250505060405180910390f35b3480156101ef57600080fd5b506102326004803603602081101561020657600080fd5b81019080803573ffffffffffffffffffffffffffffffffffffffff1690602001909291905050506105af565b604051808215151515815260200191505060405180910390f35b6102786004803603602081101561026257600080fd5b8101908080359060200190929190505050610608565b005b34801561028657600080fd5b5061028f610680565b604051808273ffffffffffffffffffffffffffffffffffffffff1673ffffffffffffffffffffffffffffffffffffffff16815260200191505060405180910390f35b3480156102dd57600080fd5b506102e66106a5565b005b3480156102f457600080fd5b506102fd6107b1565b604051808273ffffffffffffffffffffffffffffffffffffffff1673ffffffffffffffffffffffffffffffffffffffff16815260200191505060405180910390f35b34801561034b57600080fd5b506103546107c0565b6040518080602001828103825283818151815260200191508051906020019080838360005b83811015610394578082015181840152602081019050610379565b50505050905090810190601f1680156103c15780820380516001836020036101000a031916815260200191505b509250505060405180910390f35b7f959d9c3575062d3fd846d1288b5693d69179e8bb981990c54e446a125d8f28f7816103f96107cf565b333260405180806020018573ffffffffffffffffffffffffffffffffffffffff1673ffffffffffffffffffffffffffffffffffffffff1681526020018473ffffffffffffffffffffffffffffffffffffffff1673ffffffffffffffffffffffffffffffffffffffff1681526020018373ffffffffffffffffffffffffffffffffffffffff1673ffffffffffffffffffffffffffffffffffffffff168152602001828103825286818151815260200191508051906020019080838360005b838110156104d15780820151818401526020810190506104b6565b50505050905090810190601f1680156104fe5780820380516001836020036101000a031916815260200191505b509550505050505060405180910390a150565b60018054600181600116156101000203166002900480601f0160208091040260200160405190810160405280929190818152602001828054600181600116156101000203166002900480156105a75780601f1061057c576101008083540402835291602001916105a7565b820191906000526020600020905b81548152906001019060200180831161058a57829003601f168201915b505050505081565b60008060009054906101000a900473ffffffffffffffffffffffffffffffffffffffff1673ffffffffffffffffffffffffffffffffffffffff168273ffffffffffffffffffffffffffffffffffffffff16149050919050565b80341461067d576040517f08c379a00000000000000000000000000000000000000000000000000000000081526004018080602001828103825260148152602001807f6469646e277420726563656976652076616c756500000000000000000000000081525060200191505060405180910390fd5b50565b6000809054906101000a900473ffffffffffffffffffffffffffffffffffffffff1681565b600073ffffffffffffffffffffffffffffffffffffffff163073ffffffffffffffffffffffffffffffffffffffff1614610747576040517f08c379a000000000000000000000000000000000000000000000000000000000815260040180806020018281038252600b8152602001807f616c77617973206661696c00000000000000000000000000000000000000000081525060200191505060405180910390fd5b7f3f110cf99894407239c5fa1bf0523ea12b54ef6eb3e88be600b6a7f0ff76eb0e6040518080602001828103825260208152602001807f696620796f7520736565207468697320726576657274206661696c65642e2e2e81525060200191505060405180910390a1565b60006107bb6107cf565b905090565b60606107ca61080b565b905090565b600060186000369050101580156107eb57506107ea336105af565b5b156107ff57601436033560601c9050610807565b339050610808565b5b90565b606060186000369050101580156108275750610826336105af565b5b1561084c57604051601436036020825280602083015280600060408401376040810182f35b6000368080601f016020809104026020016040519081016040528093929190818152602001838380828437600081840152601f19601f8201169050808301925050505050505090509056fea264697066735822122043663c1a475c04ecf77c8714f2996ca635a873651f93f37a85d155795981ca9a64736f6c634300060a0033",
  "immutableReferences": {},
  "source": "// SPDX-License-Identifier:MIT\npragma solidity ^0.6.2;\n\nimport \"../../BaseRelayRecipient.sol\";\n\ncontract TestForwarderTarget is BaseRelayRecipient {\n\n    string public override versionRecipient = \"2.0.0+opengsn.test.recipient\";\n\n    constructor(address forwarder) public {\n        trustedForwarder = forwarder;\n    }\n\n    // solhint-disable-next-line no-empty-blocks\n    receive() external payable {}\n\n    event TestForwarderMessage(string message, address realSender, address msgSender, address origin);\n\n    function emitMessage(string memory message) public {\n\n        // solhint-disable-next-line avoid-tx-origin\n        emit TestForwarderMessage(message, _msgSender(), msg.sender, tx.origin);\n    }\n\n    function publicMsgSender() public view returns (address) {\n        return _msgSender();\n    }\n\n    function publicMsgData() public view returns (bytes memory) {\n        return _msgData();\n    }\n\n    function mustReceiveEth(uint value) public payable {\n        require( msg.value == value, \"didn't receive value\");\n    }\n\n    event Reverting(string message);\n\n    function testRevert() public {\n        require(address(this) == address(0), \"always fail\");\n        emit Reverting(\"if you see this revert failed...\");\n    }\n}\n",
  "sourcePath": "C:/Dev/repos/gsn-demo/contracts/lib/forwarder/test/TestForwarderTarget.sol",
  "compiler": {
    "name": "solc",
    "version": "0.6.10+commit.00c0fcaf.Emscripten.clang"
  },
  "schemaVersion": "3.3.3",
  "updatedAt": "2021-02-23T12:49:21.205Z",
  "devdoc": {
    "methods": {}
  },
  "userdoc": {
    "methods": {}
  }
}