{
  "contractName": "TestForwarder",
  "abi": [
    {
      "anonymous": false,
      "inputs": [
        {
          "indexed": false,
          "internalType": "bool",
          "name": "success",
          "type": "bool"
        },
        {
          "indexed": false,
          "internalType": "string",
          "name": "error",
          "type": "string"
        }
      ],
      "name": "Result",
      "type": "event"
    },
    {
      "inputs": [
        {
          "internalType": "contract Forwarder",
          "name": "forwarder",
          "type": "address"
        },
        {
          "components": [
            {
              "internalType": "address",
              "name": "from",
              "type": "address"
            },
            {
              "internalType": "address",
              "name": "to",
              "type": "address"
            },
            {
              "internalType": "uint256",
              "name": "value",
              "type": "uint256"
            },
            {
              "internalType": "uint256",
              "name": "gas",
              "type": "uint256"
            },
            {
              "internalType": "uint256",
              "name": "nonce",
              "type": "uint256"
            },
            {
              "internalType": "bytes",
              "name": "data",
              "type": "bytes"
            }
          ],
          "internalType": "struct IForwarder.ForwardRequest",
          "name": "req",
          "type": "tuple"
        },
        {
          "internalType": "bytes32",
          "name": "domainSeparator",
          "type": "bytes32"
        },
        {
          "internalType": "bytes32",
          "name": "requestTypeHash",
          "type": "bytes32"
        },
        {
          "internalType": "bytes",
          "name": "suffixData",
          "type": "bytes"
        },
        {
          "internalType": "bytes",
          "name": "sig",
          "type": "bytes"
        }
      ],
      "name": "callExecute",
      "outputs": [],
      "stateMutability": "payable",
      "type": "function"
    },
    {
      "inputs": [
        {
          "internalType": "bytes",
          "name": "ret",
          "type": "bytes"
        }
      ],
      "name": "decodeErrorMessage",
      "outputs": [
        {
          "internalType": "string",
          "name": "message",
          "type": "string"
        }
      ],
      "stateMutability": "pure",
      "type": "function"
    },
    {
      "inputs": [],
      "name": "getChainId",
      "outputs": [
        {
          "internalType": "uint256",
          "name": "id",
          "type": "uint256"
        }
      ],
      "stateMutability": "pure",
      "type": "function"
    }
  ],
  "bytecode": "0x608060405234801561001057600080fd5b50610c60806100206000396000f3fe6080604052600436106100345760003560e01c80633408e4701461003957806334bd773b14610064578063b20e015914610080575b600080fd5b34801561004557600080fd5b5061004e6100bd565b60405161005b91906109d2565b60405180910390f35b61007e60048036038101906100799190610624565b6100c5565b005b34801561008c57600080fd5b506100a760048036038101906100a291906105df565b610251565b6040516100b49190610948565b60405180910390f35b600046905090565b600060608773ffffffffffffffffffffffffffffffffffffffff1663cdf5735a3489898989896040518763ffffffff1660e01b815260040161010b95949392919061096a565b6000604051808303818588803b15801561012457600080fd5b505af1158015610138573d6000803e3d6000fd5b50505050506040513d6000823e3d601f19601f82011682018060405250810190610162919061058b565b915091507f04501845adb21423b72bbb993fbc1df7e45ebdafdd8278f36ccbec80643ab2568283610220573073ffffffffffffffffffffffffffffffffffffffff1663b20e0159846040518263ffffffff1660e01b81526004016101c69190610926565b60006040518083038186803b1580156101de57600080fd5b505afa1580156101f2573d6000803e3d6000fd5b505050506040513d6000823e3d601f19601f8201168201806040525081019061021b9190610736565b610231565b604051806020016040528060008152505b60405161023f9291906108f6565b60405180910390a15050505050505050565b60606044838390501115610286578282600490809261027293929190610abb565b81019061027f91906106f5565b90506102ce565b82828080601f016020809104026020016040519081016040528093929190818152602001838380828437600081840152601f19601f8201169050808301925050505050505090505b92915050565b6000813590506102e381610bb7565b92915050565b6000815190506102f881610bce565b92915050565b60008135905061030d81610be5565b92915050565b60008083601f84011261032557600080fd5b8235905067ffffffffffffffff81111561033e57600080fd5b60208301915083600182028301111561035657600080fd5b9250929050565b600082601f83011261036e57600080fd5b813561038161037c82610a1a565b6109ed565b9150808252602083016020830185838301111561039d57600080fd5b6103a8838284610b64565b50505092915050565b600082601f8301126103c257600080fd5b81516103d56103d082610a1a565b6109ed565b915080825260208301602083018583830111156103f157600080fd5b6103fc838284610b73565b50505092915050565b60008135905061041481610bfc565b92915050565b600082601f83011261042b57600080fd5b813561043e61043982610a46565b6109ed565b9150808252602083016020830185838301111561045a57600080fd5b610465838284610b64565b50505092915050565b600082601f83011261047f57600080fd5b815161049261048d82610a46565b6109ed565b915080825260208301602083018583830111156104ae57600080fd5b6104b9838284610b73565b50505092915050565b600060c082840312156104d457600080fd5b6104de60c06109ed565b905060006104ee848285016102d4565b6000830152506020610502848285016102d4565b602083015250604061051684828501610576565b604083015250606061052a84828501610576565b606083015250608061053e84828501610576565b60808301525060a082013567ffffffffffffffff81111561055e57600080fd5b61056a8482850161035d565b60a08301525092915050565b60008135905061058581610c13565b92915050565b6000806040838503121561059e57600080fd5b60006105ac858286016102e9565b925050602083015167ffffffffffffffff8111156105c957600080fd5b6105d5858286016103b1565b9150509250929050565b600080602083850312156105f257600080fd5b600083013567ffffffffffffffff81111561060c57600080fd5b61061885828601610313565b92509250509250929050565b60008060008060008060c0878903121561063d57600080fd5b600061064b89828a01610405565b965050602087013567ffffffffffffffff81111561066857600080fd5b61067489828a016104c2565b955050604061068589828a016102fe565b945050606061069689828a016102fe565b935050608087013567ffffffffffffffff8111156106b357600080fd5b6106bf89828a0161035d565b92505060a087013567ffffffffffffffff8111156106dc57600080fd5b6106e889828a0161035d565b9150509295509295509295565b60006020828403121561070757600080fd5b600082013567ffffffffffffffff81111561072157600080fd5b61072d8482850161041a565b91505092915050565b60006020828403121561074857600080fd5b600082015167ffffffffffffffff81111561076257600080fd5b61076e8482850161046e565b91505092915050565b61078081610aee565b82525050565b61078f81610b12565b82525050565b61079e81610b1e565b82525050565b60006107af82610a72565b6107b98185610a88565b93506107c9818560208601610b73565b6107d281610ba6565b840191505092915050565b60006107e882610a72565b6107f28185610a99565b9350610802818560208601610b73565b61080b81610ba6565b840191505092915050565b600061082182610a7d565b61082b8185610aaa565b935061083b818560208601610b73565b61084481610ba6565b840191505092915050565b600060c0830160008301516108676000860182610777565b50602083015161087a6020860182610777565b50604083015161088d60408601826108d8565b5060608301516108a060608601826108d8565b5060808301516108b360808601826108d8565b5060a083015184820360a08601526108cb82826107a4565b9150508091505092915050565b6108e181610b5a565b82525050565b6108f081610b5a565b82525050565b600060408201905061090b6000830185610786565b818103602083015261091d8184610816565b90509392505050565b6000602082019050818103600083015261094081846107dd565b905092915050565b600060208201905081810360008301526109628184610816565b905092915050565b600060a0820190508181036000830152610984818861084f565b90506109936020830187610795565b6109a06040830186610795565b81810360608301526109b281856107dd565b905081810360808301526109c681846107dd565b90509695505050505050565b60006020820190506109e760008301846108e7565b92915050565b6000604051905081810181811067ffffffffffffffff82111715610a1057600080fd5b8060405250919050565b600067ffffffffffffffff821115610a3157600080fd5b601f19601f8301169050602081019050919050565b600067ffffffffffffffff821115610a5d57600080fd5b601f19601f8301169050602081019050919050565b600081519050919050565b600081519050919050565b600082825260208201905092915050565b600082825260208201905092915050565b600082825260208201905092915050565b60008085851115610acb57600080fd5b83861115610ad857600080fd5b6001850283019150848603905094509492505050565b6000610af982610b3a565b9050919050565b6000610b0b82610b3a565b9050919050565b60008115159050919050565b6000819050919050565b6000610b3382610b00565b9050919050565b600073ffffffffffffffffffffffffffffffffffffffff82169050919050565b6000819050919050565b82818337600083830152505050565b60005b83811015610b91578082015181840152602081019050610b76565b83811115610ba0576000848401525b50505050565b6000601f19601f8301169050919050565b610bc081610aee565b8114610bcb57600080fd5b50565b610bd781610b12565b8114610be257600080fd5b50565b610bee81610b1e565b8114610bf957600080fd5b50565b610c0581610b28565b8114610c1057600080fd5b50565b610c1c81610b5a565b8114610c2757600080fd5b5056fea26469706673582212201e485108a14f15a64eb37793c82ba0e96b4c6068543cf3c5e8df50f6be714ca664736f6c634300060a0033",
  "immutableReferences": {},
  "source": "// SPDX-License-Identifier:MIT\npragma solidity ^0.6.2;\npragma experimental ABIEncoderV2;\n\nimport \"../Forwarder.sol\";\n\n// helper class for testing the forwarder.\ncontract TestForwarder {\n    function callExecute(Forwarder forwarder, Forwarder.ForwardRequest memory req,\n        bytes32 domainSeparator, bytes32 requestTypeHash, bytes memory suffixData, bytes memory sig) public payable {\n        (bool success, bytes memory error) = forwarder.execute{value:msg.value}(req, domainSeparator, requestTypeHash, suffixData, sig);\n        emit Result(success, success ? \"\" : this.decodeErrorMessage(error));\n    }\n\n    event Result(bool success, string error);\n\n    function decodeErrorMessage(bytes calldata ret) external pure returns (string memory message) {\n        //decode evert string: assume it has a standard Error(string) signature: simply skip the (selector,offset,length) fields\n        if ( ret.length>4+32+32 ) {\n            return abi.decode(ret[4:], (string));\n        }\n        //unknown buffer. return as-is\n        return string(ret);\n    }\n\n    function getChainId() public pure returns (uint256 id){\n        /* solhint-disable-next-line no-inline-assembly */\n        assembly { id := chainid() }\n    }\n}\n",
  "sourcePath": "C:/Dev/repos/gsn-demo/contracts/lib/forwarder/test/TestForwarder.sol",
  "compiler": {
    "name": "solc",
    "version": "0.6.10+commit.00c0fcaf.Emscripten.clang"
  },
  "schemaVersion": "3.3.3",
  "updatedAt": "2021-02-23T12:49:21.202Z",
  "devdoc": {
    "methods": {}
  },
  "userdoc": {
    "methods": {}
  }
}