{
  "contractName": "WhitelistPaymaster",
  "abi": [
    {
      "anonymous": false,
      "inputs": [
        {
          "indexed": true,
          "internalType": "address",
          "name": "previousOwner",
          "type": "address"
        },
        {
          "indexed": true,
          "internalType": "address",
          "name": "newOwner",
          "type": "address"
        }
      ],
      "name": "OwnershipTransferred",
      "type": "event"
    },
    {
      "inputs": [],
      "name": "FORWARDER_HUB_OVERHEAD",
      "outputs": [
        {
          "internalType": "uint256",
          "name": "",
          "type": "uint256"
        }
      ],
      "stateMutability": "view",
      "type": "function"
    },
    {
      "inputs": [],
      "name": "PAYMASTER_ACCEPTANCE_BUDGET",
      "outputs": [
        {
          "internalType": "uint256",
          "name": "",
          "type": "uint256"
        }
      ],
      "stateMutability": "view",
      "type": "function"
    },
    {
      "inputs": [],
      "name": "POST_RELAYED_CALL_GAS_LIMIT",
      "outputs": [
        {
          "internalType": "uint256",
          "name": "",
          "type": "uint256"
        }
      ],
      "stateMutability": "view",
      "type": "function"
    },
    {
      "inputs": [],
      "name": "PRE_RELAYED_CALL_GAS_LIMIT",
      "outputs": [
        {
          "internalType": "uint256",
          "name": "",
          "type": "uint256"
        }
      ],
      "stateMutability": "view",
      "type": "function"
    },
    {
      "inputs": [
        {
          "components": [
            {
              "components": [
                {
                  "internalType": "address",
                  "name": "from",
                  "type": "address"
                },
                {
                  "internalType": "address",
                  "name": "to",
                  "type": "address"
                },
                {
                  "internalType": "uint256",
                  "name": "value",
                  "type": "uint256"
                },
                {
                  "internalType": "uint256",
                  "name": "gas",
                  "type": "uint256"
                },
                {
                  "internalType": "uint256",
                  "name": "nonce",
                  "type": "uint256"
                },
                {
                  "internalType": "bytes",
                  "name": "data",
                  "type": "bytes"
                }
              ],
              "internalType": "struct IForwarder.ForwardRequest",
              "name": "request",
              "type": "tuple"
            },
            {
              "components": [
                {
                  "internalType": "uint256",
                  "name": "gasPrice",
                  "type": "uint256"
                },
                {
                  "internalType": "uint256",
                  "name": "pctRelayFee",
                  "type": "uint256"
                },
                {
                  "internalType": "uint256",
                  "name": "baseRelayFee",
                  "type": "uint256"
                },
                {
                  "internalType": "address",
                  "name": "relayWorker",
                  "type": "address"
                },
                {
                  "internalType": "address",
                  "name": "paymaster",
                  "type": "address"
                },
                {
                  "internalType": "bytes",
                  "name": "paymasterData",
                  "type": "bytes"
                },
                {
                  "internalType": "uint256",
                  "name": "clientId",
                  "type": "uint256"
                },
                {
                  "internalType": "address",
                  "name": "forwarder",
                  "type": "address"
                }
              ],
              "internalType": "struct GsnTypes.RelayData",
              "name": "relayData",
              "type": "tuple"
            }
          ],
          "internalType": "struct GsnTypes.RelayRequest",
          "name": "relayRequest",
          "type": "tuple"
        }
      ],
      "name": "_verifyForwarder",
      "outputs": [],
      "stateMutability": "view",
      "type": "function"
    },
    {
      "inputs": [],
      "name": "getGasLimits",
      "outputs": [
        {
          "components": [
            {
              "internalType": "uint256",
              "name": "acceptanceBudget",
              "type": "uint256"
            },
            {
              "internalType": "uint256",
              "name": "preRelayedCallGasLimit",
              "type": "uint256"
            },
            {
              "internalType": "uint256",
              "name": "postRelayedCallGasLimit",
              "type": "uint256"
            }
          ],
          "internalType": "struct IPaymaster.GasLimits",
          "name": "limits",
          "type": "tuple"
        }
      ],
      "stateMutability": "view",
      "type": "function"
    },
    {
      "inputs": [],
      "name": "getHubAddr",
      "outputs": [
        {
          "internalType": "address",
          "name": "",
          "type": "address"
        }
      ],
      "stateMutability": "view",
      "type": "function"
    },
    {
      "inputs": [],
      "name": "getRelayHubDeposit",
      "outputs": [
        {
          "internalType": "uint256",
          "name": "",
          "type": "uint256"
        }
      ],
      "stateMutability": "view",
      "type": "function"
    },
    {
      "inputs": [],
      "name": "owner",
      "outputs": [
        {
          "internalType": "address",
          "name": "",
          "type": "address"
        }
      ],
      "stateMutability": "view",
      "type": "function"
    },
    {
      "inputs": [
        {
          "internalType": "bytes",
          "name": "context",
          "type": "bytes"
        },
        {
          "internalType": "bool",
          "name": "success",
          "type": "bool"
        },
        {
          "internalType": "uint256",
          "name": "gasUseWithoutPost",
          "type": "uint256"
        },
        {
          "components": [
            {
              "internalType": "uint256",
              "name": "gasPrice",
              "type": "uint256"
            },
            {
              "internalType": "uint256",
              "name": "pctRelayFee",
              "type": "uint256"
            },
            {
              "internalType": "uint256",
              "name": "baseRelayFee",
              "type": "uint256"
            },
            {
              "internalType": "address",
              "name": "relayWorker",
              "type": "address"
            },
            {
              "internalType": "address",
              "name": "paymaster",
              "type": "address"
            },
            {
              "internalType": "bytes",
              "name": "paymasterData",
              "type": "bytes"
            },
            {
              "internalType": "uint256",
              "name": "clientId",
              "type": "uint256"
            },
            {
              "internalType": "address",
              "name": "forwarder",
              "type": "address"
            }
          ],
          "internalType": "struct GsnTypes.RelayData",
          "name": "relayData",
          "type": "tuple"
        }
      ],
      "name": "postRelayedCall",
      "outputs": [],
      "stateMutability": "nonpayable",
      "type": "function"
    },
    {
      "inputs": [],
      "name": "renounceOwnership",
      "outputs": [],
      "stateMutability": "nonpayable",
      "type": "function"
    },
    {
      "inputs": [
        {
          "internalType": "address",
          "name": "",
          "type": "address"
        }
      ],
      "name": "senderWhitelist",
      "outputs": [
        {
          "internalType": "bool",
          "name": "",
          "type": "bool"
        }
      ],
      "stateMutability": "view",
      "type": "function"
    },
    {
      "inputs": [
        {
          "internalType": "contract IRelayHub",
          "name": "hub",
          "type": "address"
        }
      ],
      "name": "setRelayHub",
      "outputs": [],
      "stateMutability": "nonpayable",
      "type": "function"
    },
    {
      "inputs": [
        {
          "internalType": "contract IForwarder",
          "name": "forwarder",
          "type": "address"
        }
      ],
      "name": "setTrustedForwarder",
      "outputs": [],
      "stateMutability": "nonpayable",
      "type": "function"
    },
    {
      "inputs": [
        {
          "internalType": "address",
          "name": "",
          "type": "address"
        }
      ],
      "name": "targetWhitelist",
      "outputs": [
        {
          "internalType": "bool",
          "name": "",
          "type": "bool"
        }
      ],
      "stateMutability": "view",
      "type": "function"
    },
    {
      "inputs": [
        {
          "internalType": "address",
          "name": "newOwner",
          "type": "address"
        }
      ],
      "name": "transferOwnership",
      "outputs": [],
      "stateMutability": "nonpayable",
      "type": "function"
    },
    {
      "inputs": [],
      "name": "trustedForwarder",
      "outputs": [
        {
          "internalType": "contract IForwarder",
          "name": "",
          "type": "address"
        }
      ],
      "stateMutability": "view",
      "type": "function"
    },
    {
      "inputs": [],
      "name": "useSenderWhitelist",
      "outputs": [
        {
          "internalType": "bool",
          "name": "",
          "type": "bool"
        }
      ],
      "stateMutability": "view",
      "type": "function"
    },
    {
      "inputs": [],
      "name": "useTargetWhitelist",
      "outputs": [
        {
          "internalType": "bool",
          "name": "",
          "type": "bool"
        }
      ],
      "stateMutability": "view",
      "type": "function"
    },
    {
      "inputs": [],
      "name": "versionPaymaster",
      "outputs": [
        {
          "internalType": "string",
          "name": "",
          "type": "string"
        }
      ],
      "stateMutability": "view",
      "type": "function"
    },
    {
      "inputs": [
        {
          "internalType": "uint256",
          "name": "amount",
          "type": "uint256"
        },
        {
          "internalType": "address payable",
          "name": "target",
          "type": "address"
        }
      ],
      "name": "withdrawRelayHubDepositTo",
      "outputs": [],
      "stateMutability": "nonpayable",
      "type": "function"
    },
    {
      "stateMutability": "payable",
      "type": "receive"
    },
    {
      "inputs": [
        {
          "internalType": "address",
          "name": "sender",
          "type": "address"
        }
      ],
      "name": "whitelistSender",
      "outputs": [],
      "stateMutability": "nonpayable",
      "type": "function"
    },
    {
      "inputs": [
        {
          "internalType": "address",
          "name": "target",
          "type": "address"
        }
      ],
      "name": "whitelistTarget",
      "outputs": [],
      "stateMutability": "nonpayable",
      "type": "function"
    },
    {
      "inputs": [
        {
          "components": [
            {
              "components": [
                {
                  "internalType": "address",
                  "name": "from",
                  "type": "address"
                },
                {
                  "internalType": "address",
                  "name": "to",
                  "type": "address"
                },
                {
                  "internalType": "uint256",
                  "name": "value",
                  "type": "uint256"
                },
                {
                  "internalType": "uint256",
                  "name": "gas",
                  "type": "uint256"
                },
                {
                  "internalType": "uint256",
                  "name": "nonce",
                  "type": "uint256"
                },
                {
                  "internalType": "bytes",
                  "name": "data",
                  "type": "bytes"
                }
              ],
              "internalType": "struct IForwarder.ForwardRequest",
              "name": "request",
              "type": "tuple"
            },
            {
              "components": [
                {
                  "internalType": "uint256",
                  "name": "gasPrice",
                  "type": "uint256"
                },
                {
                  "internalType": "uint256",
                  "name": "pctRelayFee",
                  "type": "uint256"
                },
                {
                  "internalType": "uint256",
                  "name": "baseRelayFee",
                  "type": "uint256"
                },
                {
                  "internalType": "address",
                  "name": "relayWorker",
                  "type": "address"
                },
                {
                  "internalType": "address",
                  "name": "paymaster",
                  "type": "address"
                },
                {
                  "internalType": "bytes",
                  "name": "paymasterData",
                  "type": "bytes"
                },
                {
                  "internalType": "uint256",
                  "name": "clientId",
                  "type": "uint256"
                },
                {
                  "internalType": "address",
                  "name": "forwarder",
                  "type": "address"
                }
              ],
              "internalType": "struct GsnTypes.RelayData",
              "name": "relayData",
              "type": "tuple"
            }
          ],
          "internalType": "struct GsnTypes.RelayRequest",
          "name": "relayRequest",
          "type": "tuple"
        },
        {
          "internalType": "bytes",
          "name": "signature",
          "type": "bytes"
        },
        {
          "internalType": "bytes",
          "name": "approvalData",
          "type": "bytes"
        },
        {
          "internalType": "uint256",
          "name": "maxPossibleGas",
          "type": "uint256"
        }
      ],
      "name": "preRelayedCall",
      "outputs": [
        {
          "internalType": "bytes",
          "name": "context",
          "type": "bytes"
        },
        {
          "internalType": "bool",
          "name": "revertOnRecipientRevert",
          "type": "bool"
        }
      ],
      "stateMutability": "nonpayable",
      "type": "function"
    }
  ],
  "bytecode": "0x608060405234801561001057600080fd5b5060006100216100c460201b60201c565b9050806000806101000a81548173ffffffffffffffffffffffffffffffffffffffff021916908373ffffffffffffffffffffffffffffffffffffffff1602179055508073ffffffffffffffffffffffffffffffffffffffff16600073ffffffffffffffffffffffffffffffffffffffff167f8be0079c531659141344cd1fd0a4f28419497f9722a3daafe3b4186f6b6457e060405160405180910390a3506100cc565b600033905090565b612109806100db6000396000f3fe60806040526004361061014f5760003560e01c80638da5cb5b116100b6578063da7422281161006f578063da74222814610585578063dd1bcaa1146105ae578063df463a66146105d9578063e5c1244614610604578063f2fde38b14610642578063f9c002f71461066b57610276565b80638da5cb5b146104875780638e9483b0146104b2578063921276ea146104db5780639ea0921114610506578063b90b41cf1461052f578063bbdaa3c91461055a57610276565b8063715018a611610108578063715018a61461037757806374e861d61461038e5780637bb05264146103b95780637da0a877146103e25780638222f07d1461040d578063858437b01461044a57610276565b80631cfda9fa1461027b5780632afe31c1146102a45780632d14c4b7146102cf5780632f10a6c6146102f85780634f28bfb9146103215780635ea54eee1461034c57610276565b3661027657600073ffffffffffffffffffffffffffffffffffffffff16600160009054906101000a900473ffffffffffffffffffffffffffffffffffffffff1673ffffffffffffffffffffffffffffffffffffffff1614156101e6576040517f08c379a00000000000000000000000000000000000000000000000000000000081526004016101dd90611d59565b60405180910390fd5b600160009054906101000a900473ffffffffffffffffffffffffffffffffffffffff1673ffffffffffffffffffffffffffffffffffffffff1663aa67c91934306040518363ffffffff1660e01b81526004016102429190611c56565b6000604051808303818588803b15801561025b57600080fd5b505af115801561026f573d6000803e3d6000fd5b5050505050005b600080fd5b34801561028757600080fd5b506102a2600480360381019061029d91906115b5565b610696565b005b3480156102b057600080fd5b506102b9610788565b6040516102c69190611e34565b60405180910390f35b3480156102db57600080fd5b506102f660048036038101906102f1919061180e565b61083a565b005b34801561030457600080fd5b5061031f600480360381019061031a91906115b5565b610948565b005b34801561032d57600080fd5b50610336610a3a565b6040516103439190611c71565b60405180910390f35b34801561035857600080fd5b50610361610a4d565b60405161036e9190611e19565b60405180910390f35b34801561038357600080fd5b5061038c610a82565b005b34801561039a57600080fd5b506103a3610bbd565b6040516103b09190611c3b565b60405180910390f35b3480156103c557600080fd5b506103e060048036038101906103db91906116c8565b610be7565b005b3480156103ee57600080fd5b506103f7610ca7565b6040516104049190611cbc565b60405180910390f35b34801561041957600080fd5b50610434600480360381019061042f91906115b5565b610ccd565b6040516104419190611c71565b60405180910390f35b34801561045657600080fd5b50610471600480360381019061046c91906115b5565b610ced565b60405161047e9190611c71565b60405180910390f35b34801561049357600080fd5b5061049c610d0d565b6040516104a99190611c3b565b60405180910390f35b3480156104be57600080fd5b506104d960048036038101906104d49190611607565b610d36565b005b3480156104e757600080fd5b506104f0610d3d565b6040516104fd9190611cd7565b60405180910390f35b34801561051257600080fd5b5061052d600480360381019061052891906116f1565b610d5d565b005b34801561053b57600080fd5b50610544610e1a565b6040516105519190611e34565b60405180910390f35b34801561056657600080fd5b5061056f610e20565b60405161057c9190611e34565b60405180910390f35b34801561059157600080fd5b506105ac60048036038101906105a7919061169f565b610e27565b005b3480156105ba57600080fd5b506105c3610ee7565b6040516105d09190611c71565b60405180910390f35b3480156105e557600080fd5b506105ee610efa565b6040516105fb9190611e34565b60405180910390f35b34801561061057600080fd5b5061062b60048036038101906106269190611732565b610f05565b604051610639929190611c8c565b60405180910390f35b34801561064e57600080fd5b50610669600480360381019061066491906115b5565b6110b1565b005b34801561067757600080fd5b5061068061125b565b60405161068d9190611e34565b60405180910390f35b61069e611262565b73ffffffffffffffffffffffffffffffffffffffff166106bc610d0d565b73ffffffffffffffffffffffffffffffffffffffff1614610712576040517f08c379a000000000000000000000000000000000000000000000000000000000815260040161070990611dd9565b60405180910390fd5b6001600460008373ffffffffffffffffffffffffffffffffffffffff1673ffffffffffffffffffffffffffffffffffffffff16815260200190815260200160002060006101000a81548160ff0219169083151502179055506001600260156101000a81548160ff02191690831515021790555050565b6000600160009054906101000a900473ffffffffffffffffffffffffffffffffffffffff1673ffffffffffffffffffffffffffffffffffffffff166370a08231306040518263ffffffff1660e01b81526004016107e59190611c56565b60206040518083038186803b1580156107fd57600080fd5b505afa158015610811573d6000803e3d6000fd5b505050506040513d601f19601f8201168201806040525081019061083591906117e5565b905090565b610842611262565b73ffffffffffffffffffffffffffffffffffffffff16610860610d0d565b73ffffffffffffffffffffffffffffffffffffffff16146108b6576040517f08c379a00000000000000000000000000000000000000000000000000000000081526004016108ad90611dd9565b60405180910390fd5b600160009054906101000a900473ffffffffffffffffffffffffffffffffffffffff1673ffffffffffffffffffffffffffffffffffffffff1662f714ce83836040518363ffffffff1660e01b8152600401610912929190611e4f565b600060405180830381600087803b15801561092c57600080fd5b505af1158015610940573d6000803e3d6000fd5b505050505050565b610950611262565b73ffffffffffffffffffffffffffffffffffffffff1661096e610d0d565b73ffffffffffffffffffffffffffffffffffffffff16146109c4576040517f08c379a00000000000000000000000000000000000000000000000000000000081526004016109bb90611dd9565b60405180910390fd5b6001600360008373ffffffffffffffffffffffffffffffffffffffff1673ffffffffffffffffffffffffffffffffffffffff16815260200190815260200160002060006101000a81548160ff0219169083151502179055506001600260146101000a81548160ff02191690831515021790555050565b600260159054906101000a900460ff1681565b610a5561146b565b604051806060016040528061c350620186a0018152602001620186a081526020016201adb0815250905090565b610a8a611262565b73ffffffffffffffffffffffffffffffffffffffff16610aa8610d0d565b73ffffffffffffffffffffffffffffffffffffffff1614610afe576040517f08c379a0000000000000000000000000000000000000000000000000000000008152600401610af590611dd9565b60405180910390fd5b600073ffffffffffffffffffffffffffffffffffffffff166000809054906101000a900473ffffffffffffffffffffffffffffffffffffffff1673ffffffffffffffffffffffffffffffffffffffff167f8be0079c531659141344cd1fd0a4f28419497f9722a3daafe3b4186f6b6457e060405160405180910390a360008060006101000a81548173ffffffffffffffffffffffffffffffffffffffff021916908373ffffffffffffffffffffffffffffffffffffffff160217905550565b6000600160009054906101000a900473ffffffffffffffffffffffffffffffffffffffff16905090565b610bef611262565b73ffffffffffffffffffffffffffffffffffffffff16610c0d610d0d565b73ffffffffffffffffffffffffffffffffffffffff1614610c63576040517f08c379a0000000000000000000000000000000000000000000000000000000008152600401610c5a90611dd9565b60405180910390fd5b80600160006101000a81548173ffffffffffffffffffffffffffffffffffffffff021916908373ffffffffffffffffffffffffffffffffffffffff16021790555050565b600260009054906101000a900473ffffffffffffffffffffffffffffffffffffffff1681565b60036020528060005260406000206000915054906101000a900460ff1681565b60046020528060005260406000206000915054906101000a900460ff1681565b60008060009054906101000a900473ffffffffffffffffffffffffffffffffffffffff16905090565b5050505050565b60606040518060600160405280602981526020016120ab60299139905090565b808060200190610d6d9190611e9c565b60e0016020810190610d7f91906115b5565b73ffffffffffffffffffffffffffffffffffffffff16600260009054906101000a900473ffffffffffffffffffffffffffffffffffffffff1673ffffffffffffffffffffffffffffffffffffffff1614610e0e576040517f08c379a0000000000000000000000000000000000000000000000000000000008152600401610e0590611d79565b60405180910390fd5b610e178161126a565b50565b61c35081565b6201adb081565b610e2f611262565b73ffffffffffffffffffffffffffffffffffffffff16610e4d610d0d565b73ffffffffffffffffffffffffffffffffffffffff1614610ea3576040517f08c379a0000000000000000000000000000000000000000000000000000000008152600401610e9a90611dd9565b60405180910390fd5b80600260006101000a81548173ffffffffffffffffffffffffffffffffffffffff021916908373ffffffffffffffffffffffffffffffffffffffff16021790555050565b600260149054906101000a900460ff1681565b61c350620186a00181565b60606000600260149054906101000a900460ff1615610fcc5760036000898060000190610f329190611e78565b6000016020810190610f4491906115b5565b73ffffffffffffffffffffffffffffffffffffffff1673ffffffffffffffffffffffffffffffffffffffff16815260200190815260200160002060009054906101000a900460ff16610fcb576040517f08c379a0000000000000000000000000000000000000000000000000000000008152600401610fc290611df9565b60405180910390fd5b5b600260159054906101000a900460ff161561108f5760046000898060000190610ff59190611e78565b602001602081019061100791906115b5565b73ffffffffffffffffffffffffffffffffffffffff1673ffffffffffffffffffffffffffffffffffffffff16815260200190815260200160002060009054906101000a900460ff1661108e576040517f08c379a000000000000000000000000000000000000000000000000000000000815260040161108590611cf9565b60405180910390fd5b5b6000604051806020016040528060008152509091509150965096945050505050565b6110b9611262565b73ffffffffffffffffffffffffffffffffffffffff166110d7610d0d565b73ffffffffffffffffffffffffffffffffffffffff161461112d576040517f08c379a000000000000000000000000000000000000000000000000000000000815260040161112490611dd9565b60405180910390fd5b600073ffffffffffffffffffffffffffffffffffffffff168173ffffffffffffffffffffffffffffffffffffffff16141561119d576040517f08c379a000000000000000000000000000000000000000000000000000000000815260040161119490611d39565b60405180910390fd5b8073ffffffffffffffffffffffffffffffffffffffff166000809054906101000a900473ffffffffffffffffffffffffffffffffffffffff1673ffffffffffffffffffffffffffffffffffffffff167f8be0079c531659141344cd1fd0a4f28419497f9722a3daafe3b4186f6b6457e060405160405180910390a3806000806101000a81548173ffffffffffffffffffffffffffffffffffffffff021916908373ffffffffffffffffffffffffffffffffffffffff16021790555050565b620186a081565b600033905090565b6000606082806000019061127e9190611e78565b602001602081019061129091906115b5565b73ffffffffffffffffffffffffffffffffffffffff1663572b6c0560e01b8480602001906112be9190611e9c565b60e00160208101906112d091906115b5565b6040516024016112e09190611c3b565b604051602081830303815290604052907bffffffffffffffffffffffffffffffffffffffffffffffffffffffff19166020820180517bffffffffffffffffffffffffffffffffffffffffffffffffffffffff838183161783525050505060405161134a9190611c24565b600060405180830381855afa9150503d8060008114611385576040519150601f19603f3d011682016040523d82523d6000602084013e61138a565b606091505b5091509150816113cf576040517f08c379a00000000000000000000000000000000000000000000000000000000081526004016113c690611db9565b60405180910390fd5b6020815114611413576040517f08c379a000000000000000000000000000000000000000000000000000000000815260040161140a90611d99565b60405180910390fd5b8080602001905181019061142791906115de565b611466576040517f08c379a000000000000000000000000000000000000000000000000000000000815260040161145d90611d19565b60405180910390fd5b505050565b60405180606001604052806000815260200160008152602001600081525090565b60008135905061149b81612020565b92915050565b6000813590506114b081612037565b92915050565b6000813590506114c58161204e565b92915050565b6000815190506114da8161204e565b92915050565b60008083601f8401126114f257600080fd5b8235905067ffffffffffffffff81111561150b57600080fd5b60208301915083600182028301111561152357600080fd5b9250929050565b60008135905061153981612065565b92915050565b60008135905061154e8161207c565b92915050565b6000610100828403121561156757600080fd5b81905092915050565b60006040828403121561158257600080fd5b81905092915050565b60008135905061159a81612093565b92915050565b6000815190506115af81612093565b92915050565b6000602082840312156115c757600080fd5b60006115d58482850161148c565b91505092915050565b6000602082840312156115f057600080fd5b60006115fe848285016114cb565b91505092915050565b60008060008060006080868803121561161f57600080fd5b600086013567ffffffffffffffff81111561163957600080fd5b611645888289016114e0565b95509550506020611658888289016114b6565b93505060406116698882890161158b565b925050606086013567ffffffffffffffff81111561168657600080fd5b61169288828901611554565b9150509295509295909350565b6000602082840312156116b157600080fd5b60006116bf8482850161152a565b91505092915050565b6000602082840312156116da57600080fd5b60006116e88482850161153f565b91505092915050565b60006020828403121561170357600080fd5b600082013567ffffffffffffffff81111561171d57600080fd5b61172984828501611570565b91505092915050565b6000806000806000806080878903121561174b57600080fd5b600087013567ffffffffffffffff81111561176557600080fd5b61177189828a01611570565b965050602087013567ffffffffffffffff81111561178e57600080fd5b61179a89828a016114e0565b9550955050604087013567ffffffffffffffff8111156117b957600080fd5b6117c589828a016114e0565b935093505060606117d889828a0161158b565b9150509295509295509295565b6000602082840312156117f757600080fd5b6000611805848285016115a0565b91505092915050565b6000806040838503121561182157600080fd5b600061182f8582860161158b565b9250506020611840858286016114a1565b9150509250929050565b61185381611f82565b82525050565b61186281611f16565b82525050565b61187181611f04565b82525050565b61188081611f28565b82525050565b600061189182611ec1565b61189b8185611ed7565b93506118ab818560208601611fdc565b6118b48161200f565b840191505092915050565b60006118ca82611ec1565b6118d48185611ee8565b93506118e4818560208601611fdc565b80840191505092915050565b6118f981611f94565b82525050565b600061190a82611ecc565b6119148185611ef3565b9350611924818560208601611fdc565b61192d8161200f565b840191505092915050565b6000611945601683611ef3565b91507f746172676574206e6f742077686974656c6973746564000000000000000000006000830152602082019050919050565b6000611985601f83611ef3565b91507f696e76616c696420666f7277617264657220666f7220726563697069656e74006000830152602082019050919050565b60006119c5602683611ef3565b91507f4f776e61626c653a206e6577206f776e657220697320746865207a65726f206160008301527f64647265737300000000000000000000000000000000000000000000000000006020830152604082019050919050565b6000611a2b601983611ef3565b91507f72656c6179206875622061646472657373206e6f7420736574000000000000006000830152602082019050919050565b6000611a6b601883611ef3565b91507f466f72776172646572206973206e6f74207472757374656400000000000000006000830152602082019050919050565b6000611aab602c83611ef3565b91507f697354727573746564466f727761726465722072657475726e656420696e766160008301527f6c696420726573706f6e736500000000000000000000000000000000000000006020830152604082019050919050565b6000611b11601b83611ef3565b91507f697354727573746564466f7277617264657220726576657274656400000000006000830152602082019050919050565b6000611b51602083611ef3565b91507f4f776e61626c653a2063616c6c6572206973206e6f7420746865206f776e65726000830152602082019050919050565b6000611b91601683611ef3565b91507f73656e646572206e6f742077686974656c6973746564000000000000000000006000830152602082019050919050565b606082016000820151611bda6000850182611c06565b506020820151611bed6020850182611c06565b506040820151611c006040850182611c06565b50505050565b611c0f81611f78565b82525050565b611c1e81611f78565b82525050565b6000611c3082846118bf565b915081905092915050565b6000602082019050611c506000830184611868565b92915050565b6000602082019050611c6b600083018461184a565b92915050565b6000602082019050611c866000830184611877565b92915050565b60006040820190508181036000830152611ca68185611886565b9050611cb56020830184611877565b9392505050565b6000602082019050611cd160008301846118f0565b92915050565b60006020820190508181036000830152611cf181846118ff565b905092915050565b60006020820190508181036000830152611d1281611938565b9050919050565b60006020820190508181036000830152611d3281611978565b9050919050565b60006020820190508181036000830152611d52816119b8565b9050919050565b60006020820190508181036000830152611d7281611a1e565b9050919050565b60006020820190508181036000830152611d9281611a5e565b9050919050565b60006020820190508181036000830152611db281611a9e565b9050919050565b60006020820190508181036000830152611dd281611b04565b9050919050565b60006020820190508181036000830152611df281611b44565b9050919050565b60006020820190508181036000830152611e1281611b84565b9050919050565b6000606082019050611e2e6000830184611bc4565b92915050565b6000602082019050611e496000830184611c15565b92915050565b6000604082019050611e646000830185611c15565b611e716020830184611859565b9392505050565b60008235600160c003833603038112611e9057600080fd5b80830191505092915050565b60008235600161010003833603038112611eb557600080fd5b80830191505092915050565b600081519050919050565b600081519050919050565b600082825260208201905092915050565b600081905092915050565b600082825260208201905092915050565b6000611f0f82611f58565b9050919050565b6000611f2182611f58565b9050919050565b60008115159050919050565b6000611f3f82611f04565b9050919050565b6000611f5182611f04565b9050919050565b600073ffffffffffffffffffffffffffffffffffffffff82169050919050565b6000819050919050565b6000611f8d82611fb8565b9050919050565b6000611f9f82611fa6565b9050919050565b6000611fb182611f58565b9050919050565b6000611fc382611fca565b9050919050565b6000611fd582611f58565b9050919050565b60005b83811015611ffa578082015181840152602081019050611fdf565b83811115612009576000848401525b50505050565b6000601f19601f8301169050919050565b61202981611f04565b811461203457600080fd5b50565b61204081611f16565b811461204b57600080fd5b50565b61205781611f28565b811461206257600080fd5b50565b61206e81611f34565b811461207957600080fd5b50565b61208581611f46565b811461209057600080fd5b50565b61209c81611f78565b81146120a757600080fd5b5056fe322e302e302b6f70656e67736e2e61636365707465766572797468696e672e697061796d6173746572a2646970667358221220058a9bc67066007f5a5b67e50d018fb68fba3ff091641e8609b3af38d187daa364736f6c634300060a0033",
  "immutableReferences": {},
  "source": "//SPDX-License-Identifier: MIT\r\npragma solidity ^0.6.10;\r\npragma experimental ABIEncoderV2;\r\n\r\nimport \"./AcceptEverythingPaymaster.sol\";\r\n\r\n///a sample paymaster that has whitelists for senders and targets.\r\n/// - if at least one sender is whitelisted, then ONLY whitelisted senders are allowed.\r\n/// - if at least one target is whitelisted, then ONLY whitelisted targets are allowed.\r\ncontract WhitelistPaymaster is AcceptEverythingPaymaster {\r\n\r\n    bool public useSenderWhitelist;\r\n    bool public useTargetWhitelist;\r\n    mapping (address=>bool) public senderWhitelist;\r\n    mapping (address=>bool) public targetWhitelist;\r\n\r\n    function whitelistSender(address sender) public onlyOwner {\r\n        senderWhitelist[sender]=true;\r\n        useSenderWhitelist = true;\r\n    }\r\n    function whitelistTarget(address target) public onlyOwner {\r\n        targetWhitelist[target]=true;\r\n        useTargetWhitelist = true;\r\n    }\r\n\r\n    function preRelayedCall(\r\n        GsnTypes.RelayRequest calldata relayRequest,\r\n        bytes calldata signature,\r\n        bytes calldata approvalData,\r\n        uint256 maxPossibleGas\r\n    )\r\n    external\r\n    override\r\n    virtual\r\n    returns (bytes memory context, bool revertOnRecipientRevert) {\r\n        (relayRequest, signature, approvalData, maxPossibleGas);\r\n\r\n        if ( useSenderWhitelist ) {\r\n            require( senderWhitelist[relayRequest.request.from], \"sender not whitelisted\");\r\n        }\r\n        if ( useTargetWhitelist ) {\r\n            require( targetWhitelist[relayRequest.request.to], \"target not whitelisted\");\r\n        }\r\n        return (\"\", false);\r\n    }\r\n}",
  "sourcePath": "C:/Dev/repos/gsn-demo/contracts/WhitelistPaymaster.sol",
  "compiler": {
    "name": "solc",
    "version": "0.6.10+commit.00c0fcaf.Emscripten.clang"
  },
  "schemaVersion": "3.3.3",
  "updatedAt": "2021-02-23T12:49:21.125Z",
  "devdoc": {
    "methods": {
      "owner()": {
        "details": "Returns the address of the current owner."
      },
      "renounceOwnership()": {
        "details": "Leaves the contract without owner. It will not be possible to call `onlyOwner` functions anymore. Can only be called by the current owner. NOTE: Renouncing ownership will leave the contract without an owner, thereby removing any functionality that is only available to the owner."
      },
      "transferOwnership(address)": {
        "details": "Transfers ownership of the contract to a new account (`newOwner`). Can only be called by the current owner."
      }
    }
  },
  "userdoc": {
    "methods": {
      "getRelayHubDeposit()": {
        "notice": "check current deposit on relay hub."
      },
      "withdrawRelayHubDepositTo(uint256,address)": {
        "notice": "withdraw deposit from relayHub"
      }
    },
    "notice": "a sample paymaster that has whitelists for senders and targets. - if at least one sender is whitelisted, then ONLY whitelisted senders are allowed. - if at least one target is whitelisted, then ONLY whitelisted targets are allowed."
  }
}